:020000040800F2
:10000000980D002001010008852000082D1D000822
:100010008120000899010008612900080000000003
:100020000000000000000000000000005523000850
:100030009D01000800000000B52000088923000889
:100040001B0100081B0100081B0100081B01000820
:100050001B0100081B0100081B0100081B01000810
:100060001B0100081B0100081B0100081B01000800
:100070001B0100081B0100081B0100081B010008F0
:100080001B0100081B0100081B0100081B010008E0
:100090001B0100081B0100081B0100081B010008D0
:1000A0001B0100081B0100081B0100081B010008C0
:1000B0001B0100081B010008152400081B01000893
:1000C0001B0100081B0100081B0100081B010008A0
:1000D0001B01000841290008512900081B010008E4
:1000E0001B0100081B0100081B010008DFF80CD0F1
:1000F00000F040F800480047892B0008980D0020C8
:100100000648804706480047FEE7FEE7FEE7FEE7B1
:10011000FEE7FEE7FEE7FEE7FEE7FEE71124000844
:10012000ED000008D2B201E000F8012B491EFBD21D
:1001300070470022F6E710B513460A4604461946F2
:10014000FFF7F0FF204610BD30B50B4601460020FA
:100150002022012409E021FA02F59D4205D303FA89
:1001600002F5491B04FA02F52844151EA2F101020A
:10017000F1DC30BD064C074D06E0E06840F00103BD
:1001800094E8070098471034AC42F6D3FFF7B2FF6B
:100190002C3200084C320008FEE7000070470000D7
:1001A000EFF3108072B600BFFEE70000014690F842
:1001B0002100022813D10868D1E90FC3026822F098
:1001C0000E020260026822F001020260012000FAC1
:1001D00003F2CCF8042081F82100002002E0042082
:1001E00088630120002281F82020704780B590F8B4
:1001F0002110022923D10268116821F00E0111603B
:100200002F211368C4F202018A4240F20401C4F2B1
:10021000020123F00103136015DD3023C4F2020351
:100220009A421CD04423C4F202039A421AD05823A3
:10023000C4F202039A421AD14FF480331FE0042122
:100240008163012080BD0823C4F202039A420CD0CE
:100250001C23C4F202039A4209D110230FE04FF489
:1002600080730CE04FF4805309E0012307E001F1B3
:10027000680C4FF08073624508BF4FF480130B6029
:10028000416B4FF48072028401B18847002080BD29
:10029000B0B5044600F014F9054640F20800C2F279
:1002A00000000078611C18BF044400BF00F008F98A
:1002B000401BA042FAD3B0BD2DE9F04F82B00E68CA
:1002C000002E00F0F38041F20042C4F20102042348
:1002D00040F2004E904208BF03234FF6FF7CC4F269
:1002E000010E009300240123C1F2100C4FF0000A0C
:1002F0004FF0000940E0012504F00C030F279F4058
:100300002BEA070705FA03F33B4342F826304E6811
:10031000F203DEF8002054BF22EA080242EA080293
:10032000CEF80020DEF80420B30354BF22EA08020E
:1003300042EA0802CEF80420F302DEF8082054BF97
:1003400022EA080242EA0802B30240F20C43CEF865
:100350000820C4F201031A6854BF22EA080242EAE4
:1003600008021A6001230E680AF1010A36FA0AF23D
:1003700004F1040400F09A8003FA0AFB16EA0B0861
:10038000F1D04A68624511DC122A51D8DFE802F048
:10039000340A4246505050505050505050505050D7
:1003A00050494D00D1F80C9042E000BF4FF6FF7568
:1003B000C1F22105AA420FDC0025C1F21105AA42B3
:1003C0001AD00025C1F21205AA4215D00025C1F2AB
:1003D0002105AA4210D02BE00025C1F22205AA4235
:1003E0000AD00025C1F23105AA4205D00025C1F28C
:1003F0003205AA421CD100BF8A6842B1012A14BF4B
:10040000C0F814B0C0F810B04FF0080910E04FF079
:1004100004090DE0CA6802F1080909E04FF000097B
:1004200006E0CA6802F1040902E0CA6802F10C0998
:1004300022460546B8F5807F24BF203A04352E6851
:100440000F279740BE4309FA02F232432A60CA7965
:10045000D2067FF588AF41F21803C4F202031A688E
:100460004FEA9A0642F001021A601A6840F6000349
:1004700002F001020192019AAEF57E7252F826B0A6
:10048000C4F2010398420FD040F60043C4F20103C6
:1004900098423FF430AF41F20003C4F20103009DE3
:1004A000984208BF022527E7002525E702B0BDE8EE
:1004B000F08F0000002A08BF0904016170470000A6
:1004C00040F69410C2F200000068704740F2080045
:1004D00040F69411C2F20000C2F2000100780A68EE
:1004E000104408607047000080B542F20000C4F27A
:1004F0000200016841F010010160032000F05EF885
:10050000032000F005F800F02BF8002080BD00006B
:10051000B0B540F20802C2F2000240F204011278C3
:10052000C2F200014FF47A730968B3FBF2F2044699
:10053000B1FBF2F1084600F09DFD0F2C4FF00105D4
:100540000CD858B94FF0FF3021460022002500F0AA
:1005500025F840F20C00C2F2000004602846B0BD4D
:1005600082B041F21800C4F20200016841F00101BA
:100570000160016801F0010101910199416841F0B8
:1005800080514160406800F080500090009802B0B7
:100590007047000080B502F0E5F980BD70B51446E3
:1005A0000D46064602F0EEF92946224601F06CFDA2
:1005B0000146304602F0EEF970BD000080B502F051
:1005C000FBF980BD2020C4F20E200121016070479C
:1005D00080B5012818D0022843D010283FD141F21D
:1005E0000401C4F202010A6851F8040CC00136D5B6
:1005F000C2F383402FA3185CD20341D440F600120B
:10060000C0F23D02504347E041F20400C4F2020050
:10061000C16940F202320A40B2F5817F04BF4FF453
:10062000004080BD01F44071B1F5407F0DD0B1F5BF
:10063000007F14D1026A920744BF49F6404080BD52
:10064000B1F5407F1CBF002080BD50F8040C46F679
:1006500036618003C0F2010101EAE07080BD002034
:1006600080BD00F087F941F20401C4F2020109687B
:100670000222C1F3813102EB4101B0FBF1F080BDF8
:100680000A6810A3C2F340429A5C41F60033C0F2FC
:10069000B703B3FBF2F250430968490248BF80BD7B
:1006A0004AF6AB214000CAF6AA21A0FB0101480886
:1006B00080BD00BF02030405060708090A0B0C0DE4
:1006C0000E0F1010010200002DE9F04182B0044627
:1006D000007841F21C06C007C4F202064AD0306816
:1006E00010F0805808D1306840F080503060306899
:1006F00000F080500190019847F20007C4F2000713
:100700003868C00512D4386840F480703860FFF74C
:10071000D7FE05463868C00508D4FFF7D1FE401B58
:100720006428F7D9032002B0BDE8F081706810F4A6
:10073000407012D0616801F4407188420DD0706839
:1007400040F24042C4F24222012320F4407113607F
:100750000023C0071360716029D17068616820F4BC
:1007600040700843B8F1000F706003D1306820F08A
:10077000805030602068810707D556F8181CA268A1
:1007800021F44041114346F8181CC00603D4002050
:1007900002B0BDE8F08156F8180CE16820F4800042
:1007A000084346F8180C002002B0BDE8F081FFF7BE
:1007B00087FE054641F2883770688007CDD4FFF781
:1007C0007FFE401BB8424FF00300F5D9ECE7000074
:1007D0002DE9F04381B0002800F0898042F2000842
:1007E000C4F202080446D8F800000D4600F00700E5
:1007F00088420CD2D8F8000020F007002843C8F83F
:100800000000D8F8000000F00700A8426FD120686F
:1008100041F204098107C4F2020917D5410705D541
:10082000D9F8001041F4E061C9F80010010705D5BE
:10083000D9F8001041F46051C9F80010D9F800103F
:10084000A26821F0F0011143C9F80010C00745D19A
:10085000D8F8000000F00700A8420CD9D8F8000032
:1008600020F007002843C8F80000D8F8000000F086
:100870000700A8423BD12068410707D5D9F80010EE
:10088000E26821F4E0611143C9F80010000708D5BF
:10089000D9F80000216920F4605040EAC100C9F88D
:1008A000000000F079F8D9F8001043F20022C1F3FB
:1008B0000311C0F60002515C40F2040220FA01F17B
:1008C00040F20C00C2F200000068C2F200021160A7
:1008D000FFF71EFE002001B0BDE8F083606802282B
:1008E00009D0012829D159F8041C890307D4012013
:1008F00001B0BDE8F08359F8041C8901F7D5D9F897
:10090000001021F003010843C9F80000FFF7D8FDEB
:10091000064641F2883700BFD9F80000616800F050
:100920000C00B0EB810F93D0FFF7CAFD801BB842DB
:10093000F2D9032001B0BDE8F08359F8041C8907FF
:10094000D5D5DCE740F20400C2F200000068704731
:1009500080B5FFF7F7FF41F20401C4F20201096814
:1009600043F21022C1F30221C0F60002515CC840DC
:1009700080BD000080B5FFF7E5FF41F20401C4F23D
:100980000201096843F21022C1F3C221C0F600023D
:10099000515CC84080BD000041F20401C4F2020174
:1009A0000B6841F6003003F00C02042AC0F2B700D5
:1009B00008BF7047082A0CD1C3F3834C0CA212F86D
:1009C0000C20DB030AD440F60010C0F23D00504377
:1009D000704741F20020C0F27A007047096808A30E
:1009E000C1F34041595C5043B0FBF1F0704700BF88
:1009F00002030405060708090A0B0C0D0E0F101060
:100A0000010200002DE9F04182B0002800F0C4800E
:100A10000446007841F20006C007C4F2020643D043
:100A2000706800F00C00042817D0706800F00C000B
:100A3000082802D17068C0030FD465682DB1B5F5E0
:100A4000A02F10D0B5F5803F11D0306820F4803051
:100A50003060306820F480200CE03068800323D5BB
:100A6000606808BB98E0306840F4802030603068EF
:100A700040F480303060FFF723FD002D054610D094
:100A80003068800310D4FFF71BFD401B6428F7D9A2
:100A900004E100BFFFF714FD401B64284FF0030082
:100AA00077D830688003F5D42078800718D570682F
:100AB00010F00C0F07D0706800F00C00082826D149
:100AC0007068C00323D43068800702D520690128EC
:100AD00062D13068616920F0F80040EAC1003060FE
:100AE000207800073DD5A06938B30020C4F2422029
:100AF0000121C0F88014FFF7E3FC0546706A800707
:100B00002DD4FFF7DDFC401B0228F7D9C6E0206991
:100B1000002840F20000C4F2422000F0968001213B
:100B20000160FFF7CDFC054630688007D1D4FFF7A0
:100B3000C7FC401B0228F7D9B0E00020C4F24220D5
:100B40000021C0F88014FFF7BBFC0546706A8007DF
:100B500007D5FFF7B5FC401B0228F7D99EE001F04E
:100B6000ABFA207840071BD4E5698DB1706800F0BE
:100B70000C00082847D1012D0ED07068216A00F4BE
:100B800080328A4208D1616A00F47010884203D131
:100B9000002002B0BDE8F081012002B0BDE8F08184
:100BA000F06910F0805808D1F06940F08050F06191
:100BB000F06900F080500190019847F20007C4F2FC
:100BC00000073868C00510D4386840F48070386079
:100BD000FFF776FC054600BF3868C00505D4FFF76F
:100BE0006FFC401B6428F7D958E0E5681DB1052D5E
:100BF0003CD0012D3ED0306A20F001003062306AD6
:100C000020F0040039E00027C4F2422700203866B3
:100C1000FFF756FC022D05460CD100BF306880015D
:100C200054D5FFF74DFC401B02284FF00300F5D9C7
:100C3000AFE700BF30688001AAD5FFF741FC401B39
:100C400002284FF00300F5D9A3E700210160FFF768
:100C500037FC0546306880077FF542AFFFF730FC70
:100C6000401B02284FF00300F4D992E7306A40F0AD
:100C700004003062306A40F001003062FFF720FC6F
:100C8000002D054641F2883714D000BF306A800736
:100C900013D4FFF715FC401BB842F7D9032002B06C
:100CA000BDE8F081FFF70CFC401BB8424FF0030099
:100CB0003FF66FAF306A8007F4D4B8F1000F7FF4CD
:100CC00053AFF06920F08050F0614DE7206AB0F535
:100CD000803F05D17168A26821F400311143716031
:100CE0007168626A21F47411104308437060012036
:100CF0003866FFF7E5FB0446306880013FF548AFF2
:100D0000FFF7DEFB001B02284FF00300F4D940E799
:100D10002DE9F04381B0064600284FF0010074D061
:100D20000C46002971D030684068400756D43046E0
:100D3000914601F09BFA07464BF2C530C9F2A2106A
:100D4000A7FB0001C80A4FF4616100FB117148F66E
:100D50008902C8F68802A1FB02235A0962701201B7
:100D6000A2EB5312A1EB820145F28012C0F2010204
:100D70009742A17036D344F20751CCF22E21A7FB43
:100D800001124AF6AB21CAF6AA21A0FB01131909E8
:100D900001EB4101A0EBC100207030464FEA124840
:100DA00001F05CFAC51B98BF4FF0FF35411C4AF6B5
:100DB0008061CFF6FE7108FB017708BF054630461B
:100DC000394601F0B1FA48B9681C07BF30464FF008
:100DD000FF31E919304601F091FAC8B1012001B0A4
:100DE000BDE8F0832070B9F1000F18D0207801F031
:100DF00079F961782070084601F074F9A178607083
:100E0000084601F06FF9A070002001B0BDE8F08342
:100E10003046414601F07EF9B9F1000FE6D10020DD
:100E200001B0BDE8F0830000B0B5002842D0044610
:100E3000407C20B900202074204600F047F80220B2
:100E40006074204600F064F878BB204601F0B4F9E5
:100E500058BB2268A068536846F62C41C4F20001D2
:100E600023F00703536018B14A6822F001024A6078
:100E70000A6822F46072104308606068411C05D162
:100E800001200125FFF7A4FBF0B1013821688A6831
:100E900022F00F0242EA10428A60CA6860F30F0231
:100EA0002046CA6001F0A0F930B101250420607429
:100EB0002846B0BD0120B0BD40F201100025A4F8C5
:100EC0000D000120E573F2E70420F0E780B582B061
:100ED000006842F60001C4F20001884201D002B06D
:100EE00080BDFFF76FFB41F21C00C4F202000168F5
:100EF00041F0006101600068012100F00060019094
:100F0000019840F23C40C4F24220016002B080BD32
:100F1000B0B5A8B104460068416821F008014160FD
:100F2000FFF7CEFA054600BF20684068000709D4E5
:100F3000FFF7C6FA401BB0F57A7FF5D90320B0BDA4
:100F40000120B0BD0020B0BD70B538B10446406A84
:100F500030B10020206104F1140007E0012070BDD1
:100F60006068B0F5827F03D004F11C0000210160AD
:100F70000026A66294F8510020B9204684F85060FB
:100F800000F038F8022084F8510094E8071001F4CA
:100F90008271036802F4044223F040030360236972
:100FA00011440CF40062114403F00202636911441D
:100FB00003F00102A369E569114403F400721144CE
:100FC00005F03802256A114405F08002A56A114334
:100FD00005F4005211430160042101EA134141600C
:100FE000C16921F40061C1610120666584F8510086
:100FF000304670BD70B586B040F60044C4F20104BE
:101000000068A4F55441002688420596CDE90366A0
:10101000029601D006B070BD41F21800C4F2020081
:10102000416802AD41F480414160416801F4804172
:1010300001910199016841F00801016000682946A9
:1010400000F00800019001984FF420400290022027
:101050000390032005902046FFF72EF94FF48040BF
:10106000CDE90206204629460496FFF725F906B089
:1010700070BD000080B501F06FF980BD70470000C1
:101080007047000010B590F83C20012A4FF0020292
:1010900031D0012380F83C3080F83D200268D2F83E
:1010A00004E0D2F808C00C682EF07003234340F22D
:1010B000FF74C4F20004A242536005DCB2F1804F19
:1010C0000ED040F2004307E042F60043C4F20103B1
:1010D0009A4205D040F60003C4F200039A4204D1BC
:1010E00049682CF08003194391600121002280F8A7
:1010F0003D1080F83C20104610BD0000002804BFC1
:101100000120704710B5044690F83D0028B9002032
:1011100084F83C00204600F01FF8022084F83D00CF
:101120002068211D01F07EF9012084F8460084F832
:101130003E0084F83F0084F8400084F8410084F8C1
:10114000420084F8430084F8440084F8450084F8A1
:101150003D00002010BD000080B582B0006840F660
:101160000001C4F20001884214D040F20041C4F2F0
:101170000001884223D141F21C00C4F20200016840
:1011800041F002010160006800F002000190019846
:1011900002B080BD41F21C00C4F2020001680022CE
:1011A00041F0040101600068002100F0040000909B
:1011B00000981E20FFF7F2F91E20FFF7EBF902B0AE
:1011C00080BD000090F83D1001291CBF0120704730
:1011D000022180F83D10006840F2FF72C168C4F23D
:1011E0000002904241F00101C16005DCB0F1804F86
:1011F0000ED040F2004107E042F60041C4F2010186
:10120000884205D040F60001C4F20001884206D1B0
:10121000816801F00701062904BF002070470168BA
:1012200041F00101016000207047000001460068A4
:1012300041F21113C26822F00102C260026A1A422E
:1012400008D1026A40F244431A4203D1026822F0F4
:10125000010202600122002081F83D207047000059
:1012600010B5044690F83C0001284FF0020008BF7A
:1012700010BD012284F83C2084F83D0020684FF620
:10128000777382689A4382600A683F2A14DD5F2A76
:1012900018DD602A28D0B2F5005F2DD0702A40D129
:1012A000D1E9012CCB68614601F014F9206881680E
:1012B00041F07701816034E01F2A0FDC92B1102ADF
:1012C00010D02EE0402A23D0502A2AD14B68CA6879
:1012D000194601F0CFF92068502120E0202A01D0E2
:1012E000302A1ED111461AE04B68CA68194601F02F
:1012F000D3F92068602112E0D1E9012CCB68614666
:1013000001F0E8F82068816841F48041816008E0DC
:101310004B68CA68194601F0ADF92068402101F018
:10132000E5F8012084F83D00002084F83C0010BD61
:101330007047000010B5044600680169890744BF82
:10134000C1685FEA817138D420680169490744BFE8
:10135000C1685FEA41713CD420680169090744BF54
:10136000C1685FEA017141D420680169C90644BFC0
:10137000C1685FEAC16145D420680169C9071CBF23
:10138000C1685FEAC1714AD120680169090644BF9A
:10139000C1685FEA016149D420680169490644BF18
:1013A000C1685FEA416148D420680169890644BF89
:1013B000C1685FEA816147D410BD6FF0020101612D
:1013C000012121778069800745D02046FFF7B0FFD3
:1013D00047E06FF00401016102212177806910F478
:1013E000407F41D02046FFF7A3FF43E06FF00801A4
:1013F000016104212177C06980073ED02046FFF7B4
:1014000097FF40E06FF01001016108212177C0696A
:1014100010F4407F3AD02046FFF78AFF3CE06FF09F
:1014200001010161204600F095F9ADE76FF0800100
:1014300001612046FFF722FEAEE76FF04001016137
:10144000204600F0A3F9AFE76FF0200101612046CC
:10145000FFF716FE10BD204600F060F8204600F0B1
:10146000DBF8002020776FE7204600F057F8204691
:1014700000F0D2F8002020776EE7204600F04EF80A
:10148000204600F0C9F8002020776DE7204600F0E4
:1014900045F8204600F0C0F8002020776CE70000F7
:1014A00070B586B0006840F20045C4F20005A8425D
:1014B0004FF00000CDE90400CDE9020001D006B0F4
:1014C00070BD41F21800C4F20200016802AC41F0A4
:1014D000040101600168022601F0040101910199F3
:1014E000016841F0080101600068214600F0080031
:1014F00001900198C020029005F582300396059670
:10150000FEF7DAFE0320CDE9020605F58430214618
:101510000596FEF7D1FE06B070BD000070470000D2
:10152000B0B5044690F83C00012804BF0220B0BDCD
:101530004FEAB2000D460121032884F83C1036D84A
:10154000DFE800F0020A12222068294600F0D6FFE8
:10155000206850F8181F0EE02068294600F0FEFFB2
:10156000206850F8181F16E02068294601F02AF874
:10157000206850F81C1F41F008010160016821F04B
:101580000401016029690FE02068294601F04CF848
:10159000206850F81C1F41F400610160016821F4CB
:1015A000806101602969090202681143016000201D
:1015B00084F83C00B0BD0000002804BF0120704743
:1015C00010B5044690F83D0028B9002084F83C008E
:1015D000204600F01FF8022084F83D002068211DFD
:1015E00000F020FF012084F8460084F83E0084F8D3
:1015F0003F0084F8400084F8410084F8420084F8F9
:10160000430084F8440084F8450084F83D0000203D
:1016100010BD00007047000070470000B0B50446E0
:1016200041B1082909D0042914BF04F1410004F193
:101630003F0004E004F13E0001E004F140000078C6
:1016400001281CBF0120B0BD022041B1082909D0EA
:10165000042914BF84F8410084F83F0004E084F8B2
:101660003E0001E084F84000206842F64445012233
:10167000C4F2010500F01CFF2068A5F14401884276
:1016800003D1296841F40041296040F2FF71C4F29E
:101690000001884205DCB0F1804F0ED040F20041DD
:1016A00007E042F60041C4F20101884205D040F64D
:1016B0000001C4F20001884206D1816801F00701EF
:1016C000062904BF0020B0BD016841F0010101609E
:1016D0000020B0BD70B50446006842F60046002206
:1016E0000D46C4F2010600F0E3FE2068B0420DD1C1
:1016F000316A41F21112114208D1016A40F24442AA
:10170000114203D1416C21F400414164016A41F26C
:101710001112114208D1016A40F24442114203D130
:10172000016821F0010101600120082D09D0042D7C
:101730000BD0002D14BF84F8410084F83E00002037
:1017400070BD84F84000002070BD84F83F00002088
:1017500070BD000040F2C401C2F20001884218BF0F
:10176000704780B501F09CF905A001F037FD40F20B
:10177000C400C2F20000FFF759FDBDE88040704789
:1017800074696D65206F766572210D0070470000E9
:10179000B0B582B0054690F83E0020280BD1002954
:1017A0004FF0010418BF002A06D095F83C0001282C
:1017B00005D1022400E00224204602B0B0BD01247D
:1017C000284685F83C402C6301F044F8286B01283A
:1017D000F2D10024019428680168019141680191C7
:1017E0000199C16841F01001C160E5E7B0B540F270
:1017F0000C12C2F2000290420C461BD040F2501173
:10180000C2F20001884218BFB0BD40F29455C2F246
:1018100000052846214601F0DFF840F20C10C2F224
:1018200000002946224600F05DFA40F25010C2F254
:1018300000000FE040F2941540F25010C2F2000593
:10184000C2F200002946224600F04CFA40F20C1089
:10185000C2F2000029464FF48062FFF799FFB0BD45
:1018600070470000B0B582B0016805460868CA68D4
:101870004C6900F02F03202B02F0200305D123B187
:10188000284600F045FF02B0B0BD5FEA007C1EBFF5
:1018900004F0010E02F4907414EB0E0424D12B6BAF
:1018A0001040C20617D5012B15D100200190086801
:1018B0000190486801900198486940061CD4A88DA1
:1018C000EA8DEB8D002B1CBF801A5FEA004240F0CE
:1018D0009A8002B0B0BD010636D44006F9D528463C
:1018E00000F00AFF02B0B0BDC10718BF12F480714A
:1018F0002FD1410733D439E0A86B0268526893B204
:10190000002BE6D0AC8DA342E3D2EA858269202A7F
:1019100016D0CA6822F48072CA604A6922F00102B5
:101920004A614A6922F040024A61202285F83E203D
:1019300000222A63CA6822F01002CA60FEF736FC51
:10194000A88DE98D401A6FE0284600F09DFF02B097
:10195000B0BD296C41F001012964410706D5BEF1F3
:10196000000F03D0296C41F002012964810706D5DC
:10197000BEF1000F03D0296C41F004012964BCF1D1
:10198000000F06D55EEA030103D0296C41F008017F
:101990002964296C00299CD01040800602D5284675
:1019A00000F0B6FE28684069296C00F0400001F0A4
:1019B0000801401820D0284600F088FE28684169B8
:1019C000490614D5416921F040014161A86B70B10D
:1019D00042F2BD61C0F600014163FEF707FC00283A
:1019E0003FF477AFA86B416B884702B0B0BD284683
:1019F000FFF736FF02B0B0BD2846FFF731FF0020E9
:101A0000286402B0B0BDCA6822F49072CA604A6904
:101A100022F001024A61202285F83E2000222A633A
:101A2000CA6822F01002CA6081B22846FFF7DEFEC3
:101A300002B0B0BD002804BF0120704710B50446B5
:101A400090F83D0028B9002084F83C00204600F0C2
:101A500021F8242084F83D002068C16821F4005159
:101A6000C160204600F0AEFE2068016921F490417B
:101A70000161416921F02A014161C16841F40051CD
:101A8000C16000202021206484F83D1084F83E10BD
:101A900010BD0000B0B586B0006844F2004140F6C9
:101AA0000004C4F20001C4F2010488424FF00001B6
:101AB000CDE90411CDE902112BD043F60001C4F2A7
:101AC0000101884257D141F21800C4F202000168B6
:101AD00041F480410160016801F480410191019964
:101AE000016841F004010160006802A900F00400EF
:101AF000019001984FF4007002900220039003209F
:101B000005902046FEF7D8FB4FF480600290252513
:101B100022E041F21800C4F20200416841F40031B1
:101B20004160416801F4003101910199016841F07F
:101B300004010160006802A900F00400019001980E
:101B40000420029002200390032005902046FEF717
:101B5000B3FB0820262502900020CDE9030002A94E
:101B60002046FEF7A9FB284607210022FEF716FDB6
:101B70002846FEF70FFD06B0B0BD000010B590F886
:101B80003E30202B0BD100294FF0010418BF002A52
:101B900001D1204610BD90F83C30012B01D102202C
:101BA00010BD0123002480F83C30046300F052FE95
:101BB000204610BD40F20C11C2F20001884218BF4D
:101BC000704770B50CA001F009FB40F29410C2F20E
:101BD0000000451E4FF480660DA400BF15F8011FDC
:101BE00020460A4601F038F9013EF7D101F026F906
:101BF000BDE87040704700BF756172743120726536
:101C0000637620696E746572727570740D000000E1
:101C100025633A25640D0A002DE9F04381B004469E
:101C200090F83D0020280BD10E4600294FF001000E
:101C300055D01746002A52D094F83C00012803D111
:101C4000022001B0BDE8F083012084F83C004FF091
:101C5000000921201D46C4F8409084F83D00FEF79D
:101C60002FFCA784E784A1680746B1F5805F07D100
:101C7000206900281CBF30464E46B046064601E0AB
:101C80004FF0000884F83C9007E000BF16F8010B05
:101C900021684860E08C0138E084E08C80B1204607
:101CA00080213A462B4600F019FE80B9002EEDD176
:101CB00038F8020B21686FF35F2048600026E9E7DF
:101CC000204640213A462B4600F008FE18B103207A
:101CD00001B0BDE8F083202084F83D00002001B071
:101CE000BDE8F083034690F83D0020280AD1002982
:101CF0004FF0010018BF002A00D1704793F83C0054
:101D0000012801D1022070471962002021219A8404
:101D1000DA84186483F83D10196883F83C00CA68B7
:101D200042F08002CA60704770470000FEE7000082
:101D30002DE9F04786B0002741F21800CDE904777D
:101D4000CDE90277C4F20200016840F6000441F0D8
:101D5000100101600168C4F2010401F01001019159
:101D60000199016804F5806541F020010160016876
:101D7000002201F020010191019901684FF483567E
:101D800041F004010160016801F004010191019931
:101D9000016841F00801016000684FF4835100F0D0
:101DA0000800019001982846FEF784FB20464FF476
:101DB000805100224FF48058FEF77CFB029602AE61
:101DC0004FF001094FF0020A28463146CDE903974A
:101DD000CDF814A0FEF770FA4FF40060CDE90207C9
:101DE000204631460497FEF767FA20463146CDE992
:101DF0000289CDE9047AFEF75FFA06B0BDE8F08704
:101E000080B540F2100042F60001C2F20000C4F2B8
:101E100000014FF0FF324FF4807380E80E00FFF7AF
:101E200003F8002818BFFEF7BBF980BD10B540F2DB
:101E3000240043F60001C2F20000C4F200014FF496
:101E4000827200234FF0020C4FF4007E382480E8A9
:101E50000E0080210A22C0E9033CC0E9053EC461AE
:101E6000C0E90813C0E90A32FFF76EF8002818BF6E
:101E7000FEF796F910BD000010B58EB040F27C0060
:101E80000021C2F2000040F2004240F2E7340D911E
:101E9000CDE90B11CDE90911CDE90711CDE9051106
:101EA000CDE90311CDE90111C4F200021123C0E90B
:101EB000021401618021C0E900238161FFF71EF94E
:101EC000002818BFFEF76CF94FF480500A9040F2DA
:101ED0007C00C2F200000AA9FFF7C2F9002818BF6F
:101EE000FEF75EF940F27C00C2F20000FFF764FBEF
:101EF000002818BFFEF754F940F27C000024C2F21B
:101F0000000008A9CDE90844FFF7BCF8002818BF75
:101F1000FEF746F96020CDE9010440F27C00C2F2F0
:101F2000000001A9002203940594FFF7F9FA0028A4
:101F300018BFFEF735F940F27C00C2F2000001A99B
:101F40000422FFF7EDFA002818BFFEF729F940F246
:101F50007C00C2F2000001A90822FFF7E1FA002884
:101F600018BFFEF71DF940F27C00C2F2000001A983
:101F70000C22FFF7D5FA002818BFFEF711F940F23E
:101F80007C00C2F20000FFF78BFA0EB010BD00001B
:101F900080B586B040F2C4000021C2F2000040F6D5
:101FA000000240F2F31CCDE90411CDE90211CDE9A4
:101FB0000011C4F2000244F24F63C0E9021C016147
:101FC0008021C0E900238161FFF798F8002818BF3D
:101FD000FEF7E6F84FF48050029040F2C400C2F2DF
:101FE000000002A9FFF73CF9002818BFFEF7D8F857
:101FF0000020CDE9000040F2C400C2F200006946B2
:10200000FFF740F8002818BFFEF7CAF806B080BDF9
:1020100080B540F20C1043F60001C2F20000C4F299
:10202000010100234FF00C0C4FF4E13280E80E0068
:10203000C0E90333C0E905C3C361FFF7FBFC002817
:1020400018BFFEF7ADF880BD80B540F2501044F2E5
:102050000041C2F20000C4F2000100234FF00C0C5A
:102060004FF4E13280E80E00C0E90333C0E905C354
:10207000C361FFF7DFFC002818BFFEF791F880BDB1
:10208000FEE70000FEE7000000F0070080F0070315
:10209000042B28BF04234FF0FF3C03380CFA03F352
:1020A00038BF0020994381400CFA00F022EA00007A
:1020B000084370477047000081B040F20400C2F24C
:1020C0000000006844F6D351C1F26201A0FB010197
:1020D000480A009000BF0098411E00280091F9D1E5
:1020E00001B07047A0F10A014CF6CD43CAB2CCF65C
:1020F000CC43A2FB0323DA0802EB8202A1EB4201EC
:10210000012202EBD302092888BF41EA0210C0B2C3
:10211000704700002DE9F0410446407BA27B94F813
:102120000F8000293CD00E46012741F2AA5502E05B
:102130000132013E34D00C28FBD807FA00F12942C5
:1021400008D01E2AF4D90C2809D108F10108012071
:102150000122EEE711F4256F04D01D2AE8D90130E1
:102160000122E6E70228E4D11B2A02D8013202202C
:10217000DFE71D2A0FD01C2A10D11FFA88F000F0CB
:102180004BF800284FF002004FF01D0208BF03205B
:1021900008BF0122CDE701220320CAE70220C8E7D9
:1021A0006073A273C1B2D2B2404684F80F8000F0CF
:1021B0006FF82073BDE8F081B0B50446FEF780F9F2
:1021C000054600BF20684168890607D4FEF778F904
:1021D000401BB0F57A7FF5D90320B0BD416841F0CE
:1021E000100141600020B0BDB0B5044600684168F0
:1021F00021F010014160FEF763F905462068406850
:10220000800607D4FEF75CF9401BB0F57A7FF5D95C
:102210000320B0BD0020B0BD81071CBF0020704767
:1022200045F62941CCF28F21484345F628424FEA32
:10223000B001C0F28F2291424DF20B724FF00003B9
:102240004FF000014FEA3010C0F2A30288BF012115
:10225000904238BF012341EA030070470068016AD9
:10226000406A80B240EA014070470000026891690C
:10227000D2F81CC0936983EA010000041CBFD2F8A5
:102280001CC019461FFA8CF040EA0140704700005C
:1022900080B5172301FB03FC48F63963C3F6E3035B
:1022A000ACFB033C4FF4FA63032938BF40F2CF7311
:1022B00003EB000E48F21F53C5F2EB13AEFB0331E4
:1022C00040F2D27338BF40F2D473184400EB9E0042
:1022D000A0EB511000EBD110104444F6251100EB97
:1022E0005C00C2F29241A0FB0112811A02EB510183
:1022F0008908A1EBC101084480BD0000B0B50D46BE
:102300000446FFF759FF00281CBF0120B0BD20681C
:10231000290C0162A9B241622046FFF765FF00283F
:1023200018BF0120B0BD0000B0B50D460446FFF750
:1023300043FF00281CBF0120B0BD2068290C81612B
:10234000A9B2C1612046FFF74FFF002818BF012046
:10235000B0BD000070470000B0B501380024B4EBF8
:10236000106F1CBF0120B0BD4EF21005CEF200056B
:1023700068604FF0FF300F2100F00CFB0720AC60CD
:1023800028602046B0BD000080B5FEF79FF880BDF4
:1023900070B594B00AAC20462821FDF7CAFE05208E
:1023A00000250A904FF480300226CDE90B05CDE9D7
:1023B00011604FF480100121139020460995CDE95A
:1023C0000755CDE90555CDE90355CDE90155CDE9D1
:1023D0000D11FEF717FBC0B90F20CDE905064FF42C
:1023E000C060CDE9080505A802210795FEF7F0F9C0
:1023F00058B9012001904FF48070029001A8FEF7B7
:1024000063F9002804BF14B070BDFDF7C9FE0000D9
:102410007047000080B540F2C400C2F20000FEF731
:1024200089FF80BD10B540F2FF7E0368C4F2000E44
:1024300042F6004C7045C4F2010C05DCB0F1804F4F
:102440000AD040F2004203E0604505D040F60002A9
:10245000C4F20002904203D14A6823F07003134390
:10246000704505DCB0F1804F0AD040F2004203E035
:10247000604505D040F60002C4F20002904203D14C
:10248000CA6823F44073134323F080024B69D1F8E8
:1024900000E08C681A4360450260C462C0F828E01E
:1024A00002D10969CCF830100121416110BD000052
:1024B00080B501F01F014FF0010CD0F820E00CFABC
:1024C00001F32EEA03030362036A02FA01F11943DE
:1024D000016280BDD0F808C011432CF47F4C41EA62
:1024E000032141EA0C01816070470000826822F0FC
:1024F0007002114341F0070181607047B0B5026A74
:1025000042F6004422F001020262026AD0F804E0BE
:10251000D0F818C08B6822F00202C4F20104A04275
:1025200042EA030205D1CB6822F00C0223F0040337
:102530001A430B68A04207D1D1E905452EF4407E2D
:1025400044EA0E0444EA050E2CF073052B43C0F850
:1025500004E08361496841630262B0BDB0B5026ABC
:1025600042F6004422F010020262026AD0F804E04F
:10257000D0F818C08B6822F02002C4F20104A042F7
:1025800042EA031207D1CB686FF0400522F0C00287
:1025900005EA03131A430B68A04207D1D1E90545A8
:1025A0002EF4406E4EEA840444EA850E2CF4E6458F
:1025B00045EA0323C0F804E083614968816302624D
:1025C000B0BD0000B0B5026A42F6004422F4807249
:1025D0000262026AD0F804E0D0F81CC08B6822F4D2
:1025E0000072C4F20104A04242EA032207D1CB6880
:1025F00040F2FF451B0222F44062AB431A430B68D2
:10260000A04207D1D1E905452EF4405E4EEA0414FC
:1026100044EA051E2CF073052B43C0F804E0C361A7
:102620004968C1630262B0BDB0B5026A42F60045B6
:1026300022F480520262026A4368D0F81CE00C68FF
:10264000D1F808C0C4F20105A84204D14D6923F4B1
:10265000804343EA85132EF4E64545EA04254360AA
:10266000C56122F40052496842EA0C3201640262F8
:10267000B0BD0000D0F820C0036A23F0010303625C
:10268000836923F0F00343EA02122CF00A03194392
:102690008261016270470000036A23F01003036245
:1026A0008369D0F820C023F4704343EA02322CF04F
:1026B000A00343EA011182610162704780B5406A5C
:1026C0000021C185C184FFF7CBF880BD0168CA68CD
:1026D00022F49072CA604A6922F001024A61026BD8
:1026E000012A03D1CA6822F01002CA60202180F8B2
:1026F0003E1000210163704780B50168CA6822F06E
:102700004002CA60202180F83D10FFF70DFB80BD1C
:1027100080B582B090F83E1022291ED18268B2F5B1
:10272000805F02D10169002940D0816AB2F5805FE3
:1027300007D00AB9026922B10268526802F07F022A
:1027400001E0026852680A700121826A11448162C4
:10275000C18D01390A04C18501D002B080BD016874
:10276000CA6822F02002CA60CA6822F48072CA6075
:102770004A6922F001024A61202280F83E20026B61
:10278000012A1BD100220263CB6823F01003CB6027
:102790000B68DB0605D501920A6801924968019130
:1027A0000199818DFFF722F802B080BD0168826A2D
:1027B00049686FF35F2111800221C6E7FFF7FAF93C
:1027C00002B080BD10B504460068D4E902C2236996
:1027D000016921F4405111430161616943EA0C022E
:1027E0001143C26841F20C639A431143C1604169CD
:1027F000A26921F44071114343F60002C4F20102C0
:102800009042416102D0FEF7A3F801E0FEF7B2F872
:102810006268192148439100B0FBF1F048F21F5162
:10282000C5F2EB11A0FB01235A096FF0630302FB11
:102830000300322303EB0010A0FB0101F02303EAA5
:102840005113206803EB0212C1F34311114481605C
:1028500010BD000081628285C285002122220164B0
:1028600080F83E20026880F83C10D06840F4807008
:10287000D060506940F001005061D06840F0200104
:102880000020D1607047000090F83D10212923D12D
:102890008168B1F5805F01D1016931B1016A0268D7
:1028A0004B1C03620978516007E0016A036831F844
:1028B000022B6FF35F225A600162C18C01390A0456
:1028C000C18418BF70470068C16821F08001C160F1
:1028D000C16841F04001C160704700002DE9F0413E
:1028E0000446006800680840884202D10020BDE824
:1028F000F0811D460E4690465F1C04E0206800688B
:102900003040B042F2D0002FF8D02DB1FDF7D8FD05
:10291000A0EB0800A842F1D92068C16821F4D07169
:10292000C160416921F001014161202084F83D002E
:1029300084F83E00002084F83C000320BDE8F081CC
:1029400080B540F20C10C2F20000FEF78BFF80BD94
:1029500080B540F25010C2F20000FEF783FF80BD48
:10296000FEE70000002848BF704700F01F01012269
:1029700002FA01F14EF200124009CEF2000242F8D2
:10298000201070474EF60C50CEF200000068C0F3E5
:10299000022070474EF6145300F00F02CEF20003EF
:1029A00009011A4400F16043B0F1FF3FC8BF03F5CD
:1029B00064421170704700004EF60C51CEF20001D7
:1029C0000A684FF6FF031A4060F30A2242F0806063
:1029D00040F0FD700860704780B5007861381628B7
:1029E00028D80FF20601DFE800F00C252512252576
:1029F0002525252525252525252525251825252594
:102A00001E004FF4487000F051F814A010E04FF48D
:102A1000487000F053F80EA00AE04FF4487000F040
:102A200037F811A004E04FF4487000F029F811A025
:102A300000F0D4FB40F2C400C2F2000001680022A2
:102A40004A626FF001020A61FEF7BCFB80BD00BF65
:102A50007475726E2072696768740D007475726E99
:102A6000206C6566740D0000726576657273650D85
:102A700000000000666F72776172640D0000000054
:102A800010B5044600F034F8204600F093F810BD6D
:102A900010B5044600F044F8204600F0A3F810BD3D
:102AA00080B500F055F800F0B5F880BD10B50446CB
:102AB00000F036F8204600F07DF810BD10B5044651
:102AC00000F090F8204600F013F810BD80B582B0F9
:102AD000019040F20C10C2F2000001A901224FF057
:102AE000FF33FFF799F84FF0FF3002B080BD0000D0
:102AF00010B540F27C04C2F20004216888632046CD
:102B00000421FEF78BFD20460021FEF7E3FD40F691
:102B10000000C4F2010040210022FDF7CBFC10BDF3
:102B200010B540F27C04C2F20004216848632046DC
:102B30000021FEF773FD20460421FEF7CBFD40F691
:102B40000000C4F2010080210022FDF7B3FC10BD9B
:102B5000B0B540F27C04C2F2000420460021FEF72A
:102B6000B9FD40F60005C4F20105284640210022C7
:102B7000FDF7A0FC20460421FEF7ACFD284680218D
:102B80000022FDF797FCB0BDFDF7AEFCFFF700FC9F
:102B9000FFF7CEF8FFF73CFAFFF76EF9FFF746F9BB
:102BA000FFF752FAFFF7F4F9FFF72AF900F0D8F827
:102BB000FEE7000010B540F27C04C2F20004216878
:102BC000C86320460821FEF729FD20460C21FEF7A8
:102BD00081FD40F60040C4F2010002210022FDF711
:102BE00069FC10BD10B540F27C04C2F200042168FB
:102BF000086420460C21FEF711FD20460821FEF74F
:102C000069FD40F60040C4F2010001210022FDF7F9
:102C100051FC10BDB0B540F27C04C2F20004204665
:102C20000821FEF757FD40F60045C4F2010528468D
:102C300001210022FDF73EFC20460C21FEF74AFD53
:102C4000284602210022FDF735FCB0BD10B540F644
:102C50000044C4F20104204640210022FDF72AFC72
:102C60000120FDF715FB204640210122FDF722FC43
:102C70000120FDF70DFB10BD2DE9F0410546442074
:102C80000C4600F0BDF84CF6CD48CCF6CC48A5FB80
:102C9000080143F21826CF08C0F60006F15DC020F7
:102CA00000F0BAF807EB8700A5EB4000305C80F03D
:102CB0008001C12000F0B0F8A4FB0801CD08715DCF
:102CC000C22000F0A9F805EB8500A4EB4000315CC0
:102CD000C32000F0A1F88A2000F092F8BDE8F0814E
:102CE00010B540F60044C4F2010420464021012200
:102CF000FDF7E0FB204620210122FDF7DBFB012050
:102D0000FDF7C6FA204620210022FDF7D3FB012063
:102D1000FDF7BEFA10BD000010B540F60044C4F245
:102D20000104204640210022FDF7C4FB204620215B
:102D30000022FDF7BFFB0120FDF7AAFA2046402143
:102D40000122FDF7B7FB0120FDF7A2FA2046202162
:102D50000122FDF7AFFB0120FDF79AFA10BD00003C
:102D600082B040F21004C2F2000401AD0CA600BF14
:102D70003C2700BF204629460022FDF7C9FF9DF8E9
:102D800005009DF80610FFF777FF9DF805109DF8E8
:102D90000620304600F060F8013FEBD1E8E700BFC5
:102DA00074696D6520253032643A253032640D0A2D
:102DB00000000000F0B581B040F60044054608264A
:102DC000C4F20104204640210022FDF773FB0120DC
:102DD000FDF75EFA05F0010220462021EFB2FDF773
:102DE00069FB204640210122FDF764FB0120FDF72D
:102DF0004FFA013E4FEA5705E4D101B0F0BD0000A3
:102E000010B50446FFF76CFF2046FFF7D3FFFFF72E
:102E10001DFFFFF781FF10BDB0B50C460546FFF75B
:102E20005FFF2846FFF7C6FFFFF710FF2046FFF7BA
:102E3000C1FFFFF70BFFFFF76FFFB0BD80B540F29A
:102E40000C1040F29411C2F20000C2F200014FF4E3
:102E50008062FEF793FE80BD0FB4054B10B503A949
:102E6000044A029800F018F810BC5DF814FB00004A
:102E7000CD2A00080000002002E008C8121F08C187
:102E8000002AFAD170477047002001E001C1121FEB
:102E9000002AFBD1704700002DE9FF4F8BB0884618
:102EA0000546002606E025280BD0DDE90D129047E7
:102EB0006D1C761C28780028F5D10FB03046BDE88F
:102EC000F08F0024A146A2460122AE4900E004434F
:102ED00015F8013F203B02FA03F00842F7D12878A9
:102EE0002A2810D06FF02F022878A0F1300109298C
:102EF00015D809EB890102EB410144F0020400EB13
:102F000001096D1CF0E758F8041B5FEA010903D5BD
:102F100044F40054C9F1000944F002046D1C2878FF
:102F20002E2817D115F8010F44F004042A280ED0DA
:102F30006FF02F022878A0F1300109290AD80AEB96
:102F40008A0102EB410100EB010A6D1CF2E758F81F
:102F500004AB6D1C28786C280FD006DC4C2817D0E9
:102F600068280DD06A2814D104E0742810D07A287B
:102F70000FD10DE044F400140AE044F4801401E0A1
:102F800044F440146978814202D104F580146D1C28
:102F90006D1C2878692865D006DC00288DD0632850
:102FA00027D0642806D15DE06E2808D073282AD087
:102FB000752877D0DDE90D129047761CE0E0C4F368
:102FC0000250022809D003280DD0D8F80010042898
:102FD0000DD00E6008F10408D2E0D8F80010F21706
:102FE000C1E90062F6E7D8F800100E80F2E70E7033
:102FF000F0E718F8041B8DF8001000208DF8010090
:10300000EB46012003E058F804BB4FF0FF306107A6
:103010004FF0000701D40AE07F1C57450DDA8742C4
:10302000FADB1BF807100029F6D106E07F1C874267
:10303000FCDB1BF807100029F8D1DDE90D23A9EB13
:1030400007008146214600F0B1F83044C61904E07B
:10305000DDE90D121BF8010B90477F1EF8D22146C7
:10306000484688E058F8040BC4F302514FF00A0BAD
:10307000032900D100B2042900D140B2002802DAAD
:1030800040422D2102E0210505D52B218DF8241089
:10309000012104E006E0E10710D02021F6E708AFA7
:1030A000089113E058F8040BC4F302514FF00A0BD7
:1030B000032900D180B2042900D1C0B20021EEE77B
:1030C0005946FDF741F8303107F8011D0028F7D1C6
:1030D000ADEB070000F1200B600702D524F480342B
:1030E00001E04FF0010ADA4502DDAAEB0B0000E037
:1030F0000020824600EB0B0108980144A9EB010077
:103100000A90E00306D4DDE90D2321460A9800F079
:103110004DF806444FF0000908E009A911F809002C
:10312000DDE90D12904709F10109761C08998945DE
:10313000F3DBE0030CD5DDE90D2321460A9800F00E
:1031400035F8064404E0DDE90D1230209047761C86
:10315000BAF10001AAF1010AF5DC05E0DDE90D1282
:1031600017F8010B9047761CBBF10001ABF1010B86
:10317000F4DC0A982146DDE90D2300F005F8064449
:103180006D1C97E6092801002DE9F0410446002551
:103190001E461746880404D405E039462020B0476F
:1031A0006D1C641EF9D52846BDE8F0812DE9F0417B
:1031B000044600251E469046C80301D5302700E08E
:1031C0002027880404D505E041463846B0476D1CE9
:1031D000641EF9D52846BDE8F081000010B504460C
:1031E00001E0FFF773FC14F8010B04490028F8D143
:1031F000BDE810400A20FFF769BC00000000002075
:103200000000000000000000010203040607080996
:1032100000000000010203043F065B4F666D7D075E
:103220007F6F777C395E79710000000050320008B2
:103230000000002010000000782E00086032000816
:1032400010000020880D0000882E000800000000FB
:10325000000000000024F400010000001000000045
:04000005080000ED02
:00000001FF
