:020000040800F2
:10000000F808002001010008091A000895170008E7
:10001000051A0008990100082921000800000000C5
:100020000000000000000000000000005D1B000850
:100030009D01000800000000391A0008911B00080B
:100040001B0100081B0100081B0100081B01000820
:100050001B0100081B0100081B0100081B01000810
:100060001B0100081B0100081B0100081B01000800
:100070001B0100081B0100081B0100081B010008F0
:100080001B0100081B0100081B0100081B010008E0
:100090001B0100081B0100081B0100081B010008D0
:1000A0001B0100081B0100081B0100081B010008C0
:1000B0001B0100081B0100081B0100081B010008B0
:1000C0001B0100081B0100081B0100081B010008A0
:1000D0001B010008192100081B0100081B01000872
:1000E0001B0100081B0100081B010008DFF80CD0F1
:1000F00000F040F800480047FD220008F808002002
:100100000648804706480047FEE7FEE7FEE7FEE7B1
:10011000FEE7FEE7FEE7FEE7FEE7FEE7F91B000865
:10012000ED000008D2B201E000F8012B491EFBD21D
:1001300070470022F6E710B513460A4604461946F2
:10014000FFF7F0FF204610BD30B50B4601460020FA
:100150002022012409E021FA02F59D4205D303FA89
:1001600002F5491B04FA02F52844151EA2F101020A
:10017000F1DC30BD064C074D06E0E06840F00103BD
:1001800094E8070098471034AC42F6D3FFF7B2FF6B
:100190007027000890270008FEE700007047000065
:1001A000EFF3108072B600BFFEE70000014690F842
:1001B0002100022813D10868D1E90FC3026822F098
:1001C0000E020260026822F001020260012000FAC1
:1001D00003F2CCF8042081F82100002002E0042082
:1001E00088630120002281F82020704780B590F8B4
:1001F0002110022923D10268116821F00E0111603B
:100200002F211368C4F202018A4240F20401C4F2B1
:10021000020123F00103136015DD3023C4F2020351
:100220009A421CD04423C4F202039A421AD05823A3
:10023000C4F202039A421AD14FF480331FE0042122
:100240008163012080BD0823C4F202039A420CD0CE
:100250001C23C4F202039A4209D110230FE04FF489
:1002600080730CE04FF4805309E0012307E001F1B3
:10027000680C4FF08073624508BF4FF480130B6029
:10028000416B4FF48072028401B18847002080BD29
:10029000B0B5044600F01AF9054640F20800C2F273
:1002A00000000078611C18BF044400BF00F00EF984
:1002B000401BA042FAD3B0BD2DE9F04F82B00E68CA
:1002C000002E00F0F38041F20042C4F20102042348
:1002D00040F2004E904208BF03234FF6FF7CC4F269
:1002E000010E009300240123C1F2100C4FF0000A0C
:1002F0004FF0000940E0012504F00C030F279F4058
:100300002BEA070705FA03F33B4342F826304E6811
:10031000F203DEF8002054BF22EA080242EA080293
:10032000CEF80020DEF80420B30354BF22EA08020E
:1003300042EA0802CEF80420F302DEF8082054BF97
:1003400022EA080242EA0802B30240F20C43CEF865
:100350000820C4F201031A6854BF22EA080242EAE4
:1003600008021A6001230E680AF1010A36FA0AF23D
:1003700004F1040400F09A8003FA0AFB16EA0B0861
:10038000F1D04A68624511DC122A51D8DFE802F048
:10039000340A4246505050505050505050505050D7
:1003A00050494D00D1F80C9042E000BF4FF6FF7568
:1003B000C1F22105AA420FDC0025C1F21105AA42B3
:1003C0001AD00025C1F21205AA4215D00025C1F2AB
:1003D0002105AA4210D02BE00025C1F22205AA4235
:1003E0000AD00025C1F23105AA4205D00025C1F28C
:1003F0003205AA421CD100BF8A6842B1012A14BF4B
:10040000C0F814B0C0F810B04FF0080910E04FF079
:1004100004090DE0CA6802F1080909E04FF000097B
:1004200006E0CA6802F1040902E0CA6802F10C0998
:1004300022460546B8F5807F24BF203A04352E6851
:100440000F279740BE4309FA02F232432A60CA7965
:10045000D2067FF588AF41F21803C4F202031A688E
:100460004FEA9A0642F001021A601A6840F6000349
:1004700002F001020192019AAEF57E7252F826B0A6
:10048000C4F2010398420FD040F60043C4F20103C6
:1004900098423FF430AF41F20003C4F20103009DE3
:1004A000984208BF022527E7002525E702B0BDE8EE
:1004B000F08F00008068084018BF012070470000DE
:1004C000002A08BF090401617047000040F2F440AF
:1004D000C2F200000068704740F2080040F2F441A8
:1004E000C2F20000C2F2000100780A6810440860FD
:1004F0007047000080B542F20000C4F202000168BB
:1005000041F010010160032000F05EF80F2000F0C0
:1005100005F800F02BF8002080BD0000B0B540F2D7
:100520000802C2F2000240F204011278C2F2000195
:100530004FF47A730968B3FBF2F20446B1FBF2F1AF
:10054000084600F06DFC0F2C4FF001050CD858B98F
:100550004FF0FF3021460022002500F025F840F240
:100560000C00C2F2000004602846B0BD82B041F227
:100570001800C4F20200016841F001010160016845
:1005800001F0010101910199416841F08051416000
:10059000406800F080500090009802B07047000062
:1005A00080B501F0C3FD80BD70B514460D4606460A
:1005B00001F0CCFD2946224601F028FA01463046DA
:1005C00001F0CCFD70BD000080B501F0D9FD80BD0B
:1005D0002DE9F04381B0002800F0898042F2000844
:1005E000C4F202080446D8F800000D4600F00700E7
:1005F00088420CD2D8F8000020F007002843C8F841
:100600000000D8F8000000F00700A8426FD1206871
:1006100041F204098107C4F2020917D5410705D543
:10062000D9F8001041F4E061C9F80010010705D5C0
:10063000D9F8001041F46051C9F80010D9F8001041
:10064000A26821F0F0011143C9F80010C00745D19C
:10065000D8F8000000F00700A8420CD9D8F8000034
:1006600020F007002843C8F80000D8F8000000F088
:100670000700A8423BD12068410707D5D9F80010F0
:10068000E26821F4E0611143C9F80010000708D5C1
:10069000D9F80000216920F4605040EAC100C9F88F
:1006A000000000F079F8D9F8001042F25072C1F35E
:1006B0000311C0F60002515C40F2040220FA01F17D
:1006C00040F20C00C2F200000068C2F200021160A9
:1006D000FFF724FF002001B0BDE8F0836068022826
:1006E00009D0012829D159F8041C890307D4012015
:1006F00001B0BDE8F08359F8041C8901F7D5D9F899
:10070000001021F003010843C9F80000FFF7DEFEE6
:10071000064641F2883700BFD9F80000616800F052
:100720000C00B0EB810F93D0FFF7D0FE801BB842D6
:10073000F2D9032001B0BDE8F08359F8041C890701
:10074000D5D5DCE740F20400C2F200000068704733
:1007500080B5FFF7F7FF41F20401C4F20201096816
:1007600042F26072C1F30221C0F60002515CC8403F
:1007700080BD000080B5FFF7E5FF41F20401C4F23F
:100780000201096842F26072C1F3C221C0F60002A0
:10079000515CC84080BD000041F20401C4F2020176
:1007A0000B6841F6003003F00C02042AC0F2B700D7
:1007B00008BF7047082A0CD1C3F3834C0CA212F86F
:1007C0000C20DB030AD440F60010C0F23D00504379
:1007D000704741F20020C0F27A007047096808A310
:1007E000C1F34041595C5043B0FBF1F0704700BF8A
:1007F00002030405060708090A0B0C0D0E0F101062
:10080000010200002DE9F04182B0002800F0C48010
:100810000446007841F20006C007C4F2020643D045
:10082000706800F00C00042817D0706800F00C000D
:10083000082802D17068C0030FD465682DB1B5F5E2
:10084000A02F10D0B5F5803F11D0306820F4803053
:100850003060306820F480200CE03068800323D5BD
:10086000606808BB98E0306840F4802030603068F1
:1008700040F480303060FFF729FE002D054610D08F
:100880003068800310D4FFF721FE401B6428F7D99D
:1008900004E100BFFFF71AFE401B64284FF003007D
:1008A00077D830688003F5D42078800718D5706831
:1008B00010F00C0F07D0706800F00C00082826D14B
:1008C0007068C00323D43068800702D520690128EE
:1008D00062D13068616920F0F80040EAC100306000
:1008E000207800073DD5A06938B30020C4F242202B
:1008F0000121C0F88014FFF7E9FD0546706A800702
:100900002DD4FFF7E3FD401B0228F7D9C6E020698C
:10091000002840F20000C4F2422000F0968001213D
:100920000160FFF7D3FD054630688007D1D4FFF79B
:10093000CDFD401B0228F7D9B0E00020C4F24220D0
:100940000021C0F88014FFF7C1FD0546706A8007DA
:1009500007D5FFF7BBFD401B0228F7D99EE001F049
:100960006DF8207840071BD4E5698DB1706800F000
:100970000C00082847D1012D0ED07068216A00F4C0
:1009800080328A4208D1616A00F47010884203D133
:10099000002002B0BDE8F081012002B0BDE8F08186
:1009A000F06910F0805808D1F06940F08050F06193
:1009B000F06900F080500190019847F20007C4F2FE
:1009C00000073868C00510D4386840F4807038607B
:1009D000FFF77CFD054600BF3868C00505D4FFF76A
:1009E00075FD401B6428F7D958E0E5681DB1052D59
:1009F0003CD0012D3ED0306A20F001003062306AD8
:100A000020F0040039E00027C4F2422700203866B5
:100A1000FFF75CFD022D05460CD100BF3068800158
:100A200054D5FFF753FD401B02284FF00300F5D9C2
:100A3000AFE700BF30688001AAD5FFF747FD401B34
:100A400002284FF00300F5D9A3E700210160FFF76A
:100A50003DFD0546306880077FF542AFFFF736FD64
:100A6000401B02284FF00300F4D992E7306A40F0AF
:100A700004003062306A40F001003062FFF726FD6A
:100A8000002D054641F2883714D000BF306A800738
:100A900013D4FFF71BFD401BB842F7D9032002B067
:100AA000BDE8F081FFF712FD401BB8424FF0030094
:100AB0003FF66FAF306A8007F4D4B8F1000F7FF4CF
:100AC00053AFF06920F08050F0614DE7206AB0F537
:100AD000803F05D17168A26821F400311143716033
:100AE0007168626A21F47411104308437060012038
:100AF0003866FFF7EBFC0446306880013FF548AFED
:100B0000FFF7E4FC001B02284FF00300F4D940E794
:100B100070B538B10446406A30B10020206104F15C
:100B2000140007E0012070BD6068B0F5827F03D03B
:100B300004F11C00002101600026A66294F8510017
:100B400020B9204684F8506000F038F8022084F87C
:100B5000510094E8071001F48271036802F4044222
:100B600023F040030360236911440CF40062114434
:100B700003F002026369114403F00102A369E5690D
:100B8000114403F40072114405F03802256A11443F
:100B900005F08002A56A114305F40052114301607B
:100BA000042101EA13414160C16921F40061C1617E
:100BB0000120666584F85100304670BD70B586B07E
:100BC00040F60044C4F201040068A4F55441002634
:100BD00088420596CDE90366029601D006B070BD45
:100BE00041F21800C4F20200416802AD41F48041B4
:100BF0004160416801F4804101910199016841F02F
:100C0000080101600068294600F008000190019881
:100C10004FF42040029002200390032005902046CC
:100C2000FFF74AFB4FF48040CDE9020620462946F3
:100C30000496FFF741FB06B070BD00002DE9F043BC
:100C400081B0044690F85000012803D1022001B081
:100C5000BDE8F08301201E4615460F4684F850007B
:100C6000FFF734FC94F85110814601290CD06068DC
:100C7000B0F5827F76D104294FF0020040F0C680A3
:100C8000A168002940F0C280002F4FF0010018BF7A
:100C9000002D00F0BB80002E00F0B88094F85100C9
:100CA000002104281CBF052084F851006165A5635C
:100CB000E687A6872763E6862068A68621646164A6
:100CC0000168490603D4016841F040010160616890
:100CD000731EE268B1FA81F1B3FA83F3DDF8208084
:100CE00049095B09B2F5006F41EA03013CD139B112
:100CF000216B0988C160B81C2063E08E0138E08652
:100D0000012608F1010500BFE08E10B9E08F002830
:100D100066D02068816889070CD5E18E012E09D143
:100D200041B1216B002631F8022BC2602163E18EB4
:100D30000139E1868168C9070AD0E18F41B1C068F5
:100D4000A16B012621F8020BA163E08F0138E08737
:100D5000FFF7BCFB002DD7D0A0EB09004045D3D353
:100D6000032053E0022051E039B139780173206B40
:100D700001302063E08E0138E086012608F101058C
:100D8000E08E08B9E08F58B32068816889070DD5D7
:100D9000E18E012E0AD149B1216B00260978017339
:100DA000206B01302063E08E0138E0862068816886
:100DB000C9070BD0E18F49B1C068A16B012608704B
:100DC000A06B0130A063E08F0138E087FFF77EFB66
:100DD000002DD5D0A0EB09004045D1D3032015E06C
:100DE000204641464A4600F03FFE18B1202060658B
:100DF00001200BE0A06800284FF0000006D1009011
:100E00002168CA680092896800910099012184F8DC
:100E10005110002184F8501001B0BDE8F0830000AB
:100E200080B500F09DFE80BD10B590F83C20012AF1
:100E30004FF0020231D0012380F83C3080F83D2091
:100E40000268D2F804E0D2F808C00C682EF07003F3
:100E5000234340F2FF74C4F20004A242536005DC55
:100E6000B2F1804F0ED040F2004307E042F600435B
:100E7000C4F201039A4205D040F60003C4F2000315
:100E80009A4204D149682CF08003194391600121F2
:100E9000002280F83D1080F83C20104610BD000074
:100EA000002804BF0120704710B5044690F83D00AB
:100EB00028B9002084F83C00204600F01FF80220EA
:100EC00084F83D002068211D00F098FE012084F880
:100ED000460084F83E0084F83F0084F8400084F81F
:100EE000410084F8420084F8430084F8440084F808
:100EF000450084F83D00002010BD000081B000686E
:100F000040F20041C4F20001884201D001B07047B4
:100F100041F21C00C4F20200016841F002010160CC
:100F2000006800F002000090009801B070470000D7
:100F300010B5044690F83C0001284FF0020008BFAD
:100F400010BD012284F83C2084F83D0020684FF653
:100F5000777382689A4382600A683F2A14DD5F2AA9
:100F600018DD602A28D0B2F5005F2DD0702A40D15C
:100F7000D1E9012CCB68614600F098FE20688168B9
:100F800041F07701816034E01F2A0FDC92B1102A12
:100F900010D02EE0402A23D0502A2AD14B68CA68AC
:100FA000194600F053FF2068502120E0202A01D08C
:100FB000302A1ED111461AE04B68CA68194600F063
:100FC00057FF2068602112E0D1E9012CCB6861460F
:100FD00000F06CFE2068816841F48041816008E087
:100FE0004B68CA68194600F031FF2068402100F0C4
:100FF00069FE012084F83D00002084F83C0010BD0B
:1010000070B586B0006840F20045C4F20005A84201
:101010004FF00000CDE90400CDE9020001D006B098
:1010200070BD41F21800C4F20200016802AC41F048
:10103000040101600168022601F004010191019997
:10104000016841F0080101600068214600F00800D5
:1010500001900198C020029005F582300396059614
:10106000FFF72AF90320CDE9020605F58430214671
:101070000596FFF721F906B070BD0000B0B5044633
:1010800090F83C00012804BF0220B0BD4FEAB20036
:101090000D460121032884F83C1036D8DFE800F023
:1010A000020A12222068294600F014FE206850F837
:1010B000181F0EE02068294600F03CFE206850F81A
:1010C000181F16E02068294600F068FE206850F8D6
:1010D0001C1F41F008010160016821F0040101605A
:1010E00029690FE02068294600F08AFE206850F840
:1010F0001C1F41F400610160016821F480610160FE
:1011000029690902026811430160002084F83C004B
:10111000B0BD0000002804BF0120704710B5044690
:1011200090F83D0028B9002084F83C00204600F0EB
:101130001FF8022084F83D002068211D00F05EFDAC
:10114000012084F8460084F83E0084F83F0084F8CB
:10115000400084F8410084F8420084F8430084F899
:10116000440084F8450084F83D00002010BD0000D4
:1011700070470000B0B5044641B1082909D00429E0
:1011800014BF04F1410004F13F0004E004F13E000B
:1011900001E004F14000007801281CBF0120B0BD2F
:1011A000022041B1082909D0042914BF84F8410064
:1011B00084F83F0004E084F83E0001E084F8400039
:1011C000206842F644450122C4F2010500F05CFDAE
:1011D0002068A5F14401884203D1296841F4004107
:1011E000296040F2FF71C4F20001884205DCB0F1D1
:1011F000804F0ED040F2004107E042F60041C4F2B9
:101200000101884205D040F60001C4F20001884285
:1012100006D1816801F00701062904BF0020B0BD96
:10122000016841F0010101600020B0BD70B50446C5
:10123000006842F6004600220D46C4F2010600F0A6
:1012400023FD2068B0420DD1316A41F211121142E2
:1012500008D1016A40F24442114203D1416C21F4A9
:1012600000414164016A41F21112114208D1016A40
:1012700040F24442114203D1016821F001010160B2
:101280000120082D09D0042D0BD0002D14BF84F8A7
:10129000410084F83E00002070BD84F8400000202A
:1012A00070BD84F83F00002070BD0000B0B582B072
:1012B000054690F83E0020280BD100294FF001048C
:1012C00018BF002A06D095F83C00012805D1022459
:1012D00000E00224204602B0B0BD0124284685F873
:1012E0003C402C6300F0A2FE286B0128F2D10024C0
:1012F0000194286801680191416801910199C168D0
:1013000041F01001C160E5E740F2B002C2F2000214
:10131000904218BF704770B50DA00C4601F006FA58
:1013200084B140F2F400C2F2000042F26875461E39
:10133000C0F6000516F8011F28460A4601F0FAF823
:10134000013CF7D101F0DAF8BDE87040704700BF0A
:101350007561727431207265637620696E7465728E
:10136000727570740D00000070470000B0B582B057
:10137000016805460868CA684C6900F02F03202BF5
:1013800002F0200305D123B1284600F0ADFD02B0E4
:10139000B0BD5FEA007C1EBF04F0010E02F4907441
:1013A00014EB0E0424D12B6B1040C20617D5012B71
:1013B00015D10020019008680190486801900198BB
:1013C000486940061CD4A88DEA8DEB8D002B1CBF0C
:1013D000801A5FEA004240F09A8002B0B0BD010678
:1013E00036D44006F9D5284600F072FD02B0B0BDF3
:1013F000C10718BF12F480712FD1410733D439E0EF
:10140000A86B0268526893B2002BE6D0AC8DA34261
:10141000E3D2EA858269202A16D0CA6822F4807253
:10142000CA604A6922F001024A614A6922F0400218
:101430004A61202285F83E2000222A63CA6822F0F1
:101440001002CA60FEF7B2FEA88DE98D401A6FE067
:10145000284600F005FE02B0B0BD296C41F0010144
:101460002964410706D5BEF1000F03D0296C41F075
:1014700002012964810706D5BEF1000F03D0296C53
:1014800041F004012964BCF1000F06D55EEA0301B6
:1014900003D0296C41F008012964296C00299CD0F3
:1014A0001040800602D5284600F01EFD28684069DD
:1014B000296C00F0400001F00801401820D02846B7
:1014C00000F0F0FC28684169490614D5416921F013
:1014D00040014161A86B70B141F69561C0F6000111
:1014E0004163FEF783FE00283FF477AFA86B416BA2
:1014F000884702B0B0BD2846FFF736FF02B0B0BD46
:101500002846FFF731FF0020286402B0B0BDCA684A
:1015100022F49072CA604A6922F001024A612022D4
:1015200085F83E2000222A63CA6822F01002CA60B1
:1015300081B22846FFF7E8FE02B0B0BD002804BF24
:101540000120704710B5044690F83D0028B90020EE
:1015500084F83C00204600F021F8242084F83D0067
:101560002068C16821F40051C160204600F016FDDA
:101570002068016921F490410161416921F02A014B
:101580004161C16841F40051C16000202021206404
:1015900084F83D1084F83E1010BD000070B586B090
:1015A00040F60004C4F20104006804F5405100262E
:1015B00088420596CDE90366029601D006B070BD5B
:1015C00041F21800C4F20200016802AD41F480410A
:1015D0000160016801F4804101910199016841F0C5
:1015E000040101600068294600F0040001900198A0
:1015F0004FF40070029002200390032005902046D3
:10160000FEF75AFE4FF48060CDE9020620462946D7
:101610000496FEF751FE252007210022FEF7C4FFA5
:101620002520FEF7BDFF06B070BD000010B590F894
:101630003E30202B0BD100294FF0010418BF002AA7
:1016400001D1204610BD90F83C30012B01D1022081
:1016500010BD0123002480F83C30046300F0E6FC58
:10166000204610BD40F2B001C2F20001884218BF0E
:10167000704770B50DA001F059F840F2F400C2F2C5
:10168000000042F26874451E4FF48066C0F6000404
:1016900015F8011F20460A4600F04CFF013EF7D125
:1016A00000F03AFFBDE87040704700BF756172748A
:1016B00031207265637620696E746572727570741C
:1016C0000D0000002DE9F04381B0044690F83D0084
:1016D00020280BD10E4600294FF0010055D01746A7
:1016E000002A52D094F83C00012803D1022001B016
:1016F000BDE8F083012084F83C004FF00009212070
:101700001D46C4F8409084F83D00FEF7DFFEA78434
:10171000E784A1680746B1F5805F07D120690028FA
:101720001CBF30464E46B046064601E04FF000086A
:1017300084F83C9007E000BF16F8010B2168486070
:10174000E08C0138E084E08C80B1204680213A466C
:101750002B4600F0AFFC80B9002EEDD138F8020B1B
:1017600021686FF35F2048600026E9E720464021AA
:101770003A462B4600F09EFC18B1032001B0BDE8AC
:10178000F083202084F83D00002001B0BDE8F08304
:1017900070470000FEE700002DE9F04786B0002703
:1017A00041F21800CDE90477CDE90277C4F20200D6
:1017B000016840F6000441F0100101600168C4F2C4
:1017C000010401F0100101910199016804F580659F
:1017D00041F0200101600168002201F02001019127
:1017E000019901684FF4805841F0040101600168DB
:1017F00001F0040101910199016841F008010160C3
:1018000000684FF4805100F00800019001982846CC
:10181000FEF756FE20464FF480510022FEF750FEA0
:1018200002AE4FF001094FF0020A28463146CDF8CA
:101830000880CDE90397CDF814A0FEF73DFD4FF4E5
:101840000060CDE90207204631460497FEF734FDDB
:1018500020463146CDE90289CDE9047AFEF72CFD18
:1018600006B0BDE8F087000010B540F2100043F666
:101870000001C2F20000C4F200014FF482720023A2
:101880004FF0020C4FF4007E382480E80E008021D7
:101890000A22C0E9033CC0E9053EC461C0E908135F
:1018A000C0E90A32FFF734F9002818BFFEF778FCC8
:1018B00010BD000010B58EB040F268000021C2F2E9
:1018C000000040F2004240F2E7340D91CDE90B11E7
:1018D000CDE90911CDE90711CDE90511CDE90311D4
:1018E000CDE90111C4F200021123C0E90214016123
:1018F0008021C0E900238161FFF7D2FA002818BFD8
:10190000FEF74EFC4FF480500A9040F26800C2F29D
:1019100000000AA9FFF70CFB002818BFFEF740FCE7
:1019200040F26800C2F20000FFF7F4FB002818BF85
:10193000FEF736FC40F268000024C2F2000008A95D
:10194000CDE90844FFF770FA002818BFFEF728FC1D
:101950006020CDE9010440F26800C2F2000001A954
:10196000002203940594FFF789FB002818BFFEF7B7
:1019700017FC40F26800C2F2000001A90422FFF740
:101980007DFB002818BFFEF70BFC40F26800C2F296
:10199000000001A90822FFF771FB002818BFFEF71D
:1019A000FFFB40F26800C2F2000001A90C22FFF721
:1019B00065FB002818BFFEF7F3FB40F26800C2F297
:1019C0000000FFF71DFB0EB010BD000080B540F217
:1019D000B00043F60001C2F20000C4F2010100238E
:1019E0004FF00C0C4FF4E13280E80E00C0E90333F5
:1019F000C0E905C3C361FFF7A1FD002818BFFEF7CA
:101A0000CFFB80BDFEE70000FEE7000000F007000E
:101A100080F00703042B28BF04234FF0FF3C03385A
:101A20000CFA03F338BF0020994381400CFA00F010
:101A300022EA0000084370477047000081B040F27E
:101A40000400C2F20000006844F6D351C1F2620102
:101A5000A0FB0101480A009000BF0098411E002829
:101A60000091F9D101B0704710B513460A468021A4
:101A7000044600F00BF800280FBF0020606D40F016
:101A80002000606518BF032010BD00002DE9F04361
:101A900081B01E4690460D468146FEF717FD301A6E
:101AA00000EB0807FEF712FD40F20401C2F200014C
:101AB0000968C1F3CB3179430091D9F800108968E6
:101AC0002940A94219D1064608F1010406E000BFE9
:101AD000D9F8000080682840A8420ED1002CF7D029
:101AE000FEF7F4FC801BB8420BD200980099002846
:101AF00008BF0746481E0090EAE7002001B0BDE895
:101B0000F083D9E900014268B1F5827F22F0E0025A
:101B100042600BD1D9F80810B1F5004F02D0B1F5F1
:101B2000806F03D1016821F040010160D9F82810CD
:101B3000B1F5005F07D1016821F40051016001682F
:101B400041F400510160012089F85100002089F81A
:101B50005000032001B0BDE8F08300007047000092
:101B6000B0B501380024B4EB106F1CBF0120B0BD2C
:101B70004EF21005CEF2000568604FF0FF300F21E5
:101B800000F0ECFA0720AC6028602046B0BD0000F1
:101B900080B5FEF7A1FC80BD70B590B006AC2046C4
:101BA0002821FEF7C6FA012006900A904FF4801013
:101BB00000254FF4803102260F9020460595CDE98F
:101BC0000355CDE90155CDE90715CDE90D61FEF7C6
:101BD00019FE78B90F20CDE901064FF4C060CDE9B8
:101BE000040501A802210395FEF7F2FC002804BFBA
:101BF00010B070BDFEF7D4FA7047000010B540F287
:101C0000FF7E0368C4F2000E42F6004C7045C4F239
:101C1000010C05DCB0F1804F0AD040F2004203E035
:101C2000604505D040F60002C4F20002904203D1A4
:101C30004A6823F070031343704505DCB0F1804F10
:101C40000AD040F2004203E0604505D040F60002B1
:101C5000C4F20002904203D1CA6823F440731343D4
:101C600023F080024B69D1F800E08C681A4360458C
:101C70000260C462C0F828E002D10969CCF83010D3
:101C80000121416110BD000080B501F01F014FF03E
:101C9000010CD0F820E00CFA01F32EEA03030362F2
:101CA000036A02FA01F11943016280BDD0F808C04D
:101CB00011432CF47F4C41EA032141EA0C0181607D
:101CC00070470000826822F07002114341F0070162
:101CD00081607047B0B5026A42F6004422F001020A
:101CE0000262026AD0F804E0D0F818C08B6822F0D3
:101CF0000202C4F20104A04242EA030205D1CB6809
:101D000022F00C0223F004031A430B68A04207D10F
:101D1000D1E905452EF4407E44EA0E0444EA050E5E
:101D20002CF073052B43C0F804E0836149684163DC
:101D30000262B0BDB0B5026A42F6004422F0100261
:101D40000262026AD0F804E0D0F818C08B6822F072
:101D50002002C4F20104A04242EA031207D1CB6878
:101D60006FF0400522F0C00205EA03131A430B6826
:101D7000A04207D1D1E905452EF4406E4EEA840415
:101D800044EA850E2CF4E64545EA0323C0F804E056
:101D90008361496881630262B0BD0000B0B5026A28
:101DA00042F6004422F480720262026AD0F804E033
:101DB000D0F81CC08B6822F40072C4F20104A04267
:101DC00042EA032207D1CB6840F2FF451B0222F40E
:101DD0004062AB431A430B68A04207D1D1E90545E5
:101DE0002EF4405E4EEA041444EA051E2CF07305FE
:101DF0002B43C0F804E0C3614968C1630262B0BD0F
:101E0000B0B5026A42F6004522F480520262026ACC
:101E10004368D0F81CE00C68D1F808C0C4F2010592
:101E2000A84204D14D6923F4804343EA85132EF47C
:101E3000E64545EA04254360C56122F4005249683D
:101E400042EA0C3201640262B0BD0000D0F820C04A
:101E5000036A23F001030362836923F0F00343EA7A
:101E600002122CF00A0319438261016270470000DC
:101E7000036A23F0100303628369D0F820C023F4BF
:101E8000704343EA02322CF0A00343EA011182615D
:101E90000162704780B5406A0021C185C184FFF7A7
:101EA00063FA80BD0168CA6822F49072CA604A6908
:101EB00022F001024A61026B012A03D1CA6822F0B2
:101EC0001002CA60202180F83E1000210163704793
:101ED00080B50168CA6822F04002CA60202180F8FB
:101EE0003D10FFF755FC80BD80B582B090F83E10E4
:101EF00022291ED18268B2F5805F02D101690029D2
:101F000040D0816AB2F5805F07D00AB9026922B178
:101F10000268526802F07F0201E0026852680A70AB
:101F20000121826A11448162C18D01390A04C1858F
:101F300001D002B080BD0168CA6822F02002CA60E8
:101F4000CA6822F48072CA604A6922F001024A61BA
:101F5000202280F83E20026B012A1BD1002202635E
:101F6000CB6823F01003CB600B68DB0605D501922C
:101F70000A680192496801910199818DFFF7C4F9BE
:101F800002B080BD0168826A49686FF35F211180E9
:101F90000221C6E7FFF766FB02B080BD10B504461C
:101FA0000068D4E902C22369016921F44051114358
:101FB0000161616943EA0C021143C26841F20C639A
:101FC0009A431143C1604169A26921F440711143F0
:101FD00043F60002C4F201029042416102D0FEF7D2
:101FE000B7FB01E0FEF7C6FB626819214843910088
:101FF000B0FBF1F048F21F51C5F2EB11A0FB012339
:102000005A096FF0630302FB0300322303EB001055
:10201000A0FB0101F02303EA5113206803EB021235
:10202000C1F343111144816010BD000081628285BB
:10203000C28500212222016480F83E20026880F8D7
:102040003C10D06840F48070D060506940F00100CE
:102050005061D06840F020010020D160704700003E
:1020600090F83D10212923D18168B1F5805F01D11D
:10207000016931B1016A02684B1C03620978516041
:1020800007E0016A036831F8022B6FF35F225A60A0
:102090000162C18C01390A04C18418BF704700680D
:1020A000C16821F08001C160C16841F04001C16098
:1020B000704700002DE9F0410446006800680840C0
:1020C000884202D10020BDE8F0811D460E469046B0
:1020D0005F1C04E0206800683040B042F2D0002F5E
:1020E000F8D02DB1FEF7F2F9A0EB0800A842F1D923
:1020F0002068C16821F4D071C160416921F00101FB
:102100004161202084F83D0084F83E00002084F8DE
:102110003C000320BDE8F08180B540F2B000C2F27F
:102120000000FFF723F980BDFEE70000002848BF4C
:10213000704700F01F01012202FA01F14EF2001275
:102140004009CEF2000242F8201070474EF60C50C3
:10215000CEF200000068C0F3022070474EF6145320
:1021600000F00F02CEF2000309011A4400F16043AF
:10217000B0F1FF3FC8BF03F5644211707047000023
:102180004EF60C51CEF200010A684FF6FF031A40DA
:1021900060F30A2242F0806040F0FD7008607047F2
:1021A00010B5044600F05EF8204600F05BF910BD63
:1021B00010B5044600F06EF8204600F06BF910BD33
:1021C00080B500F07FF800F07DF980BD10B50446C1
:1021D00000F060F8204600F045F910BD10B5044647
:1021E00000F058F9204600F03DF810BD80B582B0EF
:1021F000019040F2B000C2F2000001A901224FF0AC
:10220000FF33FFF75FFA4FF0FF3002B080BD0000F0
:1022100080B540F60000C4F201004FF40061FEF703
:1022200049F9012802D100F005F880BD00F00EF850
:1022300080BD000080B540F60000C4F201004FF4FC
:1022400080510022FEF73CF980BD000080B540F6C9
:102250000000C4F201004FF480510122FEF730F972
:1022600080BD000010B540F26804C2F2000421688D
:10227000886320460421FEF77DFF20460021FEF7FB
:10228000D5FF40F60000C4F2010040210022FEF715
:1022900017F910BD10B540F26804C2F200042168BD
:1022A000486320460021FEF765FF20460421FEF723
:1022B000BDFF40F60000C4F2010080210022FEF7BD
:1022C000FFF810BDB0B540F26804C2F20004204629
:1022D0000021FEF7ABFF40F60005C4F201052846D9
:1022E00040210022FEF7ECF820460421FEF79EFF75
:1022F000284680210022FEF7E3F8B0BDFEF7FAF889
:10230000FFF74AFCFFF748FAFFF760FBFFF7D2FA46
:10231000FFF7AAFA00F02CF8FFF77AFFFCE70000BD
:1023200080B500F073F8411C10D004380B2888BF2A
:1023300080BDDFE800F0060E131812121212060E0E
:1023400013184FF44870FFF72BFF80BDFFF738FFDD
:1023500080BD4FF44870FFF741FF80BD4FF44870D7
:10236000FFF726FF80BD4FF44870FFF72FFF80BDB9
:10237000FFF7D6FF0A20FDF78BFFF9E7B0B588B06D
:1023800040F600450020C4F201058DF81C00CDE99F
:1023900005008DF81000039044F2012002902846B9
:1023A0004FF480510022FEF78BF840F210004FF4FA
:1023B0007A74C2F2000002A905AA09230094FEF76C
:1023C0003DFC18B1014606A000F0B4F828464FF4D1
:1023D00080510122FEF774F8BDF8170008B0B0BDB7
:1023E0004661696C20746F2048414C5F5350495FCF
:1023F0005472616E736D6974526563656976652C9C
:102400006572723A25640D0A0000000070B5FFF78E
:10241000B5FF044600284FF0FF0003D04FF6FF71D0
:102420008C4201D140B270BDFF20002507A602E01A
:102430000135102DF6D024FA05F1C907F8D1304640
:10244000294600F077F82846F2E700BF70726573FE
:1024500073206B6579206E756D6265723A25640D27
:102460000A00000010B540F26804C2F200042168BE
:10247000C86320460821FEF77DFE20460C21FEF7AA
:10248000D5FE40F60040C4F2010002210022FEF712
:1024900017F810BD10B540F26804C2F200042168BC
:1024A000086420460C21FEF765FE20460821FEF751
:1024B000BDFE40F60040C4F2010001210022FDF7FC
:1024C000FFFF10BDB0B540F26804C2F20004204620
:1024D0000821FEF7ABFE40F60045C4F20105284690
:1024E00001210022FDF7ECFF20460C21FEF79EFEA5
:1024F000284602210022FDF7E3FFB0BD80B540F27F
:10250000B00040F2F401C2F20000C2F200014FF448
:102510008062FEF7CBFE80BD80B540F2B00040F295
:10252000F401C2F20000C2F200014FF48062FFF732
:102530007DF880BD0FB4054B10B503A9044A02987D
:1025400000F018F810BC5DF814FB0000ED21000845
:102550000000002002E008C8121F08C1002AFAD1BA
:1025600070477047002001E001C1121F002AFBD113
:10257000704700002DE9FF4F8BB09A460F46054685
:10258000002606E025280BD052460D9990476D1C79
:10259000761C28780028F5D10FB03046BDE8F08FC2
:1025A0000024A0460122604900E0044315F8013FE1
:1025B000203B02FA03F00842F7D128782E2817D1E1
:1025C00015F8010F44F004042A280ED06FF02F02F2
:1025D0002878A0F1300109290AD808EB880102EB1C
:1025E000410100EB01086D1CF2E757F8048B6D1CEC
:1025F000287869283ED006DC0028CDD063280BD08F
:10260000642804D136E0732810D075284BD0524688
:102610000D999047761C85E017F8040B8DF80000A3
:1026200000208DF80100E946012003E057F8049BE3
:102630004FF0FF3061074FF0000401D40AE0641C42
:1026400044450DDA8442FADB19F804100029F6D16A
:1026500006E0641C8442FCDB19F804100029F8D160
:10266000264404E019F8010B52460D999047641E68
:10267000F8D257E001CF4FF00A0B002802DA4042AF
:102680002D2102E0210504D52B218DF824100121F4
:1026900003E0E10705D02021F7E70DF120090891BB
:1026A0000CE00021F9E701CF4FF00A0BF9E759469A
:1026B000FDF74AFD01F1300209F8012D0028F6D19D
:1026C000ADEB090000F1200B600701D44FF00108C9
:1026D000D84502DDA8EB0B0000E000208046002476
:1026E00006E009A85246005D0D999047641C761CCF
:1026F00008988442F5DB04E0302052460D9990475B
:10270000761CB8F10001A8F10108F5DC05E019F824
:10271000010B52460D999047761CBBF10001ABF1BD
:10272000010BF4DC6D1C34E70928010010B50446E8
:1027300001E0FFF75BFD14F8010B04490028F8D114
:10274000BDE810400A20FFF751BD00000000002046
:102750000000000000000000010203040607080951
:10276000000000000102030425633A25640D0A00FD
:1027700090270008000000201000000054250008E9
:10278000A027000810000020E808000064250008C9
:10279000000000000024F400010000001000000010
:04000005080000ED02
:00000001FF
