:020000040800F2
:10000000F00D0020010100083D2700083123000801
:100010003927000889060008152F00080000000095
:100020000000000000000000000000000929000896
:100030008D060008000000006D2700083D2900081B
:100040001B0100081B0100081B0100081B01000820
:100050001B0100081B0100081B0100081B01000810
:100060001B0100081B0100081B0100081B01000800
:100070001B0100081B0100081B0100081B010008F0
:100080001B0100081B0100081B0100081B010008E0
:100090001B0100081B0100081B0100081B010008D0
:1000A0001B0100081B0100081B0100081B010008C0
:1000B0001B0100081B010008C92900081B010008DA
:1000C0001B0100081B0100081B0100081B010008A0
:1000D0001B010008F52E0008052F00081B01000871
:1000E0001B0100081B0100081B010008DFF80CD0F1
:1000F00000F02AFA00480047F52F0008F00D002014
:100100000648804706480047FEE7FEE7FEE7FEE7B1
:10011000FEE7FEE7FEE7FEE7FEE7FEE7C52900088B
:10012000ED000008D2B201E000F8012B491EFBD21D
:1001300070470022F6E710B513460A4604461946F2
:10014000FFF7F0FF204610BD30B50B4601460020FA
:100150002022012409E021FA02F59D4205D303FA89
:1001600002F5491B04FA02F52844151EA2F101020A
:10017000F1DC30BD2DE9F05F0546002092469B463C
:1001800088460646814640241BE0284641464746AD
:10019000224600F0FAF953465A46C01A914110D34C
:1001A00011461846224600F0E1F92D1A67EB0108C6
:1001B0004F4622460120002100F0D8F917EB000934
:1001C0004E41201EA4F10104DFDC484631462A4698
:1001D0004346BDE8F09F2DE9FE4F804681EA0300CB
:1001E000C00F0C46009021F0004123F00045B8EB11
:1001F0000200A94105D24046214690461C460B46C6
:10020000024623F00040104347D0270DC7F30A00F1
:10021000C3F30A510290401A019040286BDAC3F3ED
:10022000130040F4801B0098924620B10023D2EBCB
:10023000030A63EB0B0B01985946C0F1400250468C
:1002400000F094F906460D4650465946019A00F0D2
:10025000ACF910EB08006141002487EA115284EAEE
:10026000E7731A4340D0009A62B3019A012A4FEA19
:10027000075215DC001B61EB02014FF0004202EA5D
:100280000752CDE90042001C41F5801132462B4651
:1002900000F0ACF903B0BDE8F08F40462146F9E725
:1002A000001B61EB0201001C41F5801300185B414B
:1002B0002018A2F5001747EB030140EAD570B619E4
:1002C0006D4111E06D084FEA360645EAC0754FEA08
:1002D0000752001B61EB0201001C41F58011490827
:1002E0004FEA30000019514132462B4603B0BDE8B9
:1002F000F04F00F06CB90098012240000023D0EBD1
:10030000020263EBE073009821464FEAE074B8EB19
:10031000000061EB0401E9E783F000435BE781F053
:10032000004158E72DE9FE4F81EA030404F0004440
:1003300021F0004100944FF0000B23F0004350EAFD
:1003400001045ED052EA03045BD0C3F30A54C1F344
:100350000A552C44A4F2F3340194A0FB0254C1F3D7
:10036000130141F48011C3F3130343F4801301FB21
:10037000024400FB034E840A970A44EA815447EA88
:100380008357A4FB076802958D0A05FB07854FEA92
:10039000932C04FB0C542705029D4FEA065847EAAC
:1003A0001637B5EB08056EEB070C870E920E47EA81
:1003B000811742EA8312A7FB0201B6EB0B0164EB43
:1003C00000042B0D43EA0C335E1844EB1C50DA4654
:1003D0005146E7FB0201C5F313044FEA0B3343EA2E
:1003E00014534FEA0432019C43EA0603A4F10C04BF
:1003F0000294009CCDE900B400F0F8F803B0BDE829
:10040000F08F00200146F9E72DE9F04D81EA030461
:1004100004F0004B21F0004514464FF0000A23F091
:10042000004150EA050220D054EA01021DD0C5F374
:100430000A570246C5F31303C1F31300C1F30A566A
:1004400040F4801543F48013A7EB0608101BD64632
:1004500008F2FD3873EB050002D308F1010801E052
:1004600092185B41B8F1000F03DA00200146BDE8A5
:10047000F08D00204FF48011064684460EE0171BD5
:1004800073EB050705D3121B63EB050306434CEA28
:10049000010C49084FEA300092185B4150EA01070D
:1004A000EDD152EA030012D082EA040083EA05018A
:1004B000084305D0101BAB4106D20122002306E001
:1004C00000224FF0004302E06FF0010253101AEBDC
:1004D00006004CEB085110EB0A0041EB0B01BDE8A4
:1004E000F04D00F074B8C1F30A52C1F3130140F2A9
:1004F000FF3341F480119A4202DA0020014670472E
:1005000040F233439A42A2F2334202DC524200F0FC
:100510003CB800F02BB8000030B5041E71F10004A7
:1005200004DB4FF00044404264EB0101141E73F100
:10053000000405DB1C464FF00043524263EB04030A
:10054000994208BF904230BD064C074D06E0E06876
:1005500040F0010394E8070098471034AC42F6D30A
:10056000FFF7C8FDA4390008C4390008202A04DBBD
:10057000203A00FA02F1002070479140C2F12003B6
:1005800020FA03F3194390407047202A04DB203AF5
:1005900021FA02F00021704721FA02F3D040C2F1A3
:1005A00020029140084319467047202A06DBCB17EA
:1005B000203A41FA02F043EAE07306E041FA02F31E
:1005C000D040C2F12002914008431946704710B54F
:1005D000141E73F1000408DA401C41F10001921866
:1005E0005B411A4301D120F0010010BD2DE9F04D0F
:1005F00092469B4611B1B1FA81F202E0B0FA80F264
:1006000020329046FFF7B2FF04460F4640EA0A0048
:1006100041EA0B0153465A46084313D0114653EAA8
:10062000010019D0C8F140025046FFF7AEFF054661
:100630000E46504659464246FFF798FF084305D0FC
:10064000012004E020463946BDE8F08D0020054336
:1006500046EAE0762C4337430A986305E40AA0EBA8
:1006600008000022FD0A44EA47540A3002D500205F
:100670000146E9E7010510196941DDE9084500195E
:100680006941BDE8F04DA2E7FEE7000070470000B9
:10069000EFF3108072B600BFFEE70000014690F84D
:1006A0002100022813D10868D1E90FC3026822F0A3
:1006B0000E020260026822F001020260012000FACC
:1006C00003F2CCF8042081F82100002002E004208D
:1006D00088630120002281F82020704780B590F8BF
:1006E0002110022923D10268116821F00E01116046
:1006F0002F211368C4F202018A4240F20401C4F2BD
:10070000020123F00103136015DD3023C4F202035C
:100710009A421CD04423C4F202039A421AD05823AE
:10072000C4F202039A421AD14FF480331FE004212D
:100730008163012080BD0823C4F202039A420CD0D9
:100740001C23C4F202039A4209D110230FE04FF494
:1007500080730CE04FF4805309E0012307E001F1BE
:10076000680C4FF08073624508BF4FF480130B6034
:10077000416B4FF48072028401B18847002080BD34
:100780002DE9F04F82B00E68002E00F0F38041F2A8
:100790000042C4F20102042340F2004E904208BF1E
:1007A00003234FF6FF7CC4F2010E009300240123C3
:1007B000C1F2100C4FF0000A4FF0000940E0012593
:1007C00004F00C030F279F402BEA070705FA03F3F9
:1007D0003B4342F826304E68F203DEF8002054BF57
:1007E00022EA080242EA0802CEF80020DEF80420DD
:1007F000B30354BF22EA080242EA0802CEF80420FA
:10080000F302DEF8082054BF22EA080242EA080296
:10081000B30240F20C43CEF80820C4F201031A6878
:1008200054BF22EA080242EA08021A6001230E6855
:100830000AF1010A36FA0AF204F1040400F09A807F
:1008400003FA0AFB16EA0B08F1D04A68624511DC8C
:10085000122A51D8DFE802F0340A42465050505074
:10086000505050505050505050494D00D1F80C90BD
:1008700042E000BF4FF6FF75C1F22105AA420FDC2E
:100880000025C1F21105AA421AD00025C1F21205B5
:10089000AA4215D00025C1F22105AA4210D02BE0B2
:1008A0000025C1F22205AA420AD00025C1F2310575
:1008B000AA4205D00025C1F23205AA421CD100BFD0
:1008C0008A6842B1012A14BFC0F814B0C0F810B051
:1008D0004FF0080910E04FF004090DE0CA6802F17A
:1008E000080909E04FF0000906E0CA6802F10409AE
:1008F00002E0CA6802F10C0922460546B8F5807F7D
:1009000024BF203A04352E680F279740BE4309FACA
:1009100002F232432A60CA79D2067FF588AF41F2EB
:100920001803C4F202031A684FEA9A0642F0010261
:100930001A601A6840F6000302F001020192019A5F
:10094000AEF57E7252F826B0C4F2010398420FD081
:1009500040F60043C4F2010398423FF430AF41F245
:100960000003C4F20103009D984208BF022527E757
:10097000002525E702B0BDE8F08F0000002A08BF7F
:10098000090401617047000040F6E810C2F200005F
:1009900000687047F0B581B0B0B3044690F83D00F0
:1009A00028B9002084F83C00204600F0BFF824203D
:1009B00084F83D002068016821F0010101600168B0
:1009C00041F400410160016821F40041016000F040
:1009D0002FFB48F28041C0F21E0140F6001265680C
:1009E00088424FF00001C0F23D0248F2A16C4FF086
:1009F000000338BF01219042C0F2010C38BF01232F
:100A0000654538BF0B4613B1012001B0F0BD4DF66E
:100A10008361C4F21B31A0FB011221684FEA924EA0
:100A20004B684FF4967623F03F0343EA92434B60C2
:100A300044F6D3530F6A0EFB06F6C1F26203A6FB1F
:100A4000033627F03F03B709654538BF970C7A1C7A
:100A50001A430A62CA6948F2A0674CF6FF73C0F2F3
:100A60000107BD4222EA030C0AD801386A00B0FB34
:100A7000F2F001306FF31F30042898BF04202BE000
:100A8000A368A0F1010E9BB119206843BEFBF0F0F2
:100A90000422013062F31F30000512D09BB11920EF
:100AA0006843BEFBF0F00422013062F31F3011E016
:100AB00005EB4500BEFBF0F001306FF31F30000581
:100AC000ECD1012008E005EB4500BEFBF0F0013061
:100AD0006FF31F3040F4004040EA0C00C861086822
:100AE000D4E9072320F0C000104318430860886849
:100AF00048F2FF3204F10C0790438CCF18431043A7
:100B0000A6698860C86820F0FF0038433043C86099
:100B1000086840F00100086000202021206484F86B
:100B20003D10206384F83E0001B0F0BD10B586B0E2
:100B3000006845F20041C4F2000188424FF0000015
:100B4000CDE90400CDE9020001D006B010BD41F2AC
:100B50001804C4F20204206802A940F008002060D2
:100B6000206800F00800019001984FF44070029056
:100B7000122003900320059040F60040C4F20100CB
:100B8000FFF7FEFD0420C4F20100016841F0E061BE
:100B900041F002010160606840F40010606060682C
:100BA00000F400100190019806B010BD40F208005A
:100BB00040F6E811C2F20000C2F2000100780A68B3
:100BC000104408607047000080B542F20000C4F293
:100BD0000200016841F010010160032000F05EF89E
:100BE000032000F005F800F02BF8002080BD000085
:100BF000B0B540F20802C2F2000240F204011278DD
:100C0000C2F200014FF47A730968B3FBF2F20446B2
:100C1000B1FBF2F1084600F0C5FD0F2C4FF00105C5
:100C20000CD858B94FF0FF3021460022002500F0C3
:100C300025F840F20C00C2F2000004602846B0BD66
:100C400082B041F21800C4F20200016841F00101D3
:100C50000160016801F0010101910199416841F0D1
:100C600080514160406800F080500090009802B0D0
:100C70007047000080B502F04FF980BD70B5144692
:100C80000D46064602F058F92946224601F058FD65
:100C90000146304602F058F970BD000080B502F000
:100CA00065F980BD2020C4F20E200121016070474B
:100CB00080B5012818D0022843D010283FD141F236
:100CC0000401C4F202010A6851F8040CC00136D5CF
:100CD000C2F383402FA3185CD20341D440F6001224
:100CE000C0F23D02504347E041F20400C4F202006A
:100CF000C16940F202320A40B2F5817F04BF4FF46D
:100D0000004080BD01F44071B1F5407F0DD0B1F5D8
:100D1000007F14D1026A920744BF49F6404080BD6B
:100D2000B1F5407F1CBF002080BD50F8040C46F692
:100D300036618003C0F2010101EAE07080BD00204D
:100D400080BD00F087F941F20401C4F20201096894
:100D50000222C1F3813102EB4101B0FBF1F080BD11
:100D60000A6810A3C2F340429A5C41F60033C0F215
:100D7000B703B3FBF2F250430968490248BF80BD94
:100D80004AF6AB214000CAF6AA21A0FB010148089F
:100D900080BD00BF02030405060708090A0B0C0DFD
:100DA0000E0F1010010200002DE9F04182B0044640
:100DB000007841F21C06C007C4F202064AD030682F
:100DC00010F0805808D1306840F0805030603068B2
:100DD00000F080500190019847F20007C4F200072C
:100DE0003868C00512D4386840F480703860FFF766
:100DF000CBFD05463868C00508D4FFF7C5FD401B8C
:100E00006428F7D9032002B0BDE8F081706810F4BF
:100E1000407012D0616801F4407188420DD0706852
:100E200040F24042C4F24222012320F44071136098
:100E30000023C0071360716029D17068616820F4D5
:100E400040700843B8F1000F706003D1306820F0A3
:100E5000805030602068810707D556F8181CA268BA
:100E600021F44041114346F8181CC00603D4002069
:100E700002B0BDE8F08156F8180CE16820F480005B
:100E8000084346F8180C002002B0BDE8F081FFF7D7
:100E90007BFD054641F2883770688007CDD4FFF7A7
:100EA00073FD401BB8424FF00300F5D9ECE700009A
:100EB0002DE9F04381B0002800F0898042F200085B
:100EC000C4F202080446D8F800000D4600F00700FE
:100ED00088420CD2D8F8000020F007002843C8F858
:100EE0000000D8F8000000F00700A8426FD1206889
:100EF00041F204098107C4F2020917D5410705D55B
:100F0000D9F8001041F4E061C9F80010010705D5D7
:100F1000D9F8001041F46051C9F80010D9F8001058
:100F2000A26821F0F0011143C9F80010C00745D1B3
:100F3000D8F8000000F00700A8420CD9D8F800004B
:100F400020F007002843C8F80000D8F8000000F09F
:100F50000700A8423BD12068410707D5D9F8001007
:100F6000E26821F4E0611143C9F80010000708D5D8
:100F7000D9F80000216920F4605040EAC100C9F8A6
:100F8000000000F079F8D9F8001043F68C12C1F394
:100F90000311C0F60002515C40F2040220FA01F194
:100FA00040F20C00C2F200000068C2F200021160C0
:100FB000FFF71EFE002001B0BDE8F0836068022844
:100FC00009D0012829D159F8041C890307D401202C
:100FD00001B0BDE8F08359F8041C8901F7D5D9F8B0
:100FE000001021F003010843C9F80000FFF7CCFC12
:100FF000064641F2883700BFD9F80000616800F06A
:101000000C00B0EB810F93D0FFF7BEFC801BB84201
:10101000F2D9032001B0BDE8F08359F8041C890718
:10102000D5D5DCE740F20400C2F20000006870474A
:1010300080B5FFF7F7FF41F20401C4F2020109682D
:1010400043F69C12C1F30221C0F60002515CC84075
:1010500080BD000080B5FFF7E5FF41F20401C4F256
:101060000201096843F69C12C1F3C221C0F60002D6
:10107000515CC84080BD000041F20401C4F202018D
:101080000B6841F6003003F00C02042AC0F2B700EE
:1010900008BF7047082A0CD1C3F3834C0CA212F886
:1010A0000C20DB030AD440F60010C0F23D00504390
:1010B000704741F20020C0F27A007047096808A327
:1010C000C1F34041595C5043B0FBF1F0704700BFA1
:1010D00002030405060708090A0B0C0D0E0F101079
:1010E000010200002DE9F04182B0002800F0C48028
:1010F0000446007841F20006C007C4F2020643D05D
:10110000706800F00C00042817D0706800F00C0024
:10111000082802D17068C0030FD465682DB1B5F5F9
:10112000A02F10D0B5F5803F11D0306820F480306A
:101130003060306820F480200CE03068800323D5D4
:10114000606808BB98E0306840F480203060306808
:1011500040F480303060FFF717FC002D054610D0BA
:101160003068800310D4FFF70FFC401B6428F7D9C8
:1011700004E100BFFFF708FC401B64284FF00300A8
:1011800077D830688003F5D42078800718D5706848
:1011900010F00C0F07D0706800F00C00082826D162
:1011A0007068C00323D43068800702D52069012805
:1011B00062D13068616920F0F80040EAC100306017
:1011C000207800073DD5A06938B30020C4F2422042
:1011D0000121C0F88014FFF7D7FB0546706A80072D
:1011E0002DD4FFF7D1FB401B0228F7D9C6E02069B8
:1011F000002840F20000C4F2422000F09680012155
:101200000160FFF7C1FB054630688007D1D4FFF7C6
:10121000BBFB401B0228F7D9B0E00020C4F24220FB
:101220000021C0F88014FFF7AFFB0546706A800705
:1012300007D5FFF7A9FB401B0228F7D99EE001F074
:1012400097FA207840071BD4E5698DB1706800F0EB
:101250000C00082847D1012D0ED07068216A00F4D7
:1012600080328A4208D1616A00F47010884203D14A
:10127000002002B0BDE8F081012002B0BDE8F0819D
:10128000F06910F0805808D1F06940F08050F061AA
:10129000F06900F080500190019847F20007C4F215
:1012A00000073868C00510D4386840F48070386092
:1012B000FFF76AFB054600BF3868C00505D4FFF795
:1012C00063FB401B6428F7D958E0E5681DB1052D84
:1012D0003CD0012D3ED0306A20F001003062306AEF
:1012E00020F0040039E00027C4F2422700203866CD
:1012F000FFF74AFB022D05460CD100BF3068800184
:1013000054D5FFF741FB401B02284FF00300F5D9ED
:10131000AFE700BF30688001AAD5FFF735FB401B5F
:1013200002284FF00300F5D9A3E700210160FFF781
:101330002BFB0546306880077FF542AFFFF724FBA3
:10134000401B02284FF00300F4D992E7306A40F0C6
:1013500004003062306A40F001003062FFF714FB95
:10136000002D054641F2883714D000BF306A80074F
:1013700013D4FFF709FB401BB842F7D9032002B092
:10138000BDE8F081FFF700FB401BB8424FF00300BF
:101390003FF66FAF306A8007F4D4B8F1000F7FF4E6
:1013A00053AFF06920F08050F0614DE7206AB0F54E
:1013B000803F05D17168A26821F40031114371604A
:1013C0007168626A21F4741110430843706001204F
:1013D0003866FFF7D9FA0446306880013FF548AF18
:1013E000FFF7D2FA001B02284FF00300F4D940E7C0
:1013F000B0B5002842D00446407C20B900202074BB
:10140000204600F047F802206074204600F018F9EA
:1014100078BB204601F0CCF958BB2268A06853681D
:1014200046F62C41C4F2000123F00703536018B1C3
:101430004A6822F001024A600A6822F4607210438E
:1014400008606068411C05D101200125FFF730FCD0
:10145000F0B1013821688A6822F00F0242EA104296
:101460008A60CA6860F30F022046CA6001F0B8F9CA
:1014700030B10125042060742846B0BD0120B0BD04
:1014800040F201100025A4F80D000120E573F2E7F9
:101490000420F0E780B582B0006842F60001C4F293
:1014A0000001884201D002B080BDFFF7FBFB41F292
:1014B0001C00C4F20200016841F000610160006894
:1014C000012100F000600190019840F23C40C4F21C
:1014D0004220016002B080BDB0B5044600284FF044
:1014E000010058D00D46002955D0207C01284FF02E
:1014F000020008BFB0BD012121746074E8786AB1B0
:1015000001F04CF96978E073084601F047F9A978D1
:101510006073084601F042F9024603E0E073687820
:10152000AA786073617BE07BA27301F08BF9207372
:101530002870204601F074F945F69071C0F201015F
:10154000884224D344F20751CCF22E21A0FB011291
:10155000110C40F2A3225143A0EBC11520462946AD
:1015600001F0BCF928B1042060740020207401202F
:10157000B0BD204601F04CF9A84208D200F58030F9
:1015800000F5A341204601F093F90028EBD101209A
:10159000607400202074B0BD70B5044600284FF080
:1015A00001004BD00D46002948D0207C01284FF087
:1015B000020008BF70BD01212174607428788AB1CF
:1015C00001F0ECF869784FF4616200FB02F608461E
:1015D00001F0E4F8C0EB0011A87806EB810501F0FA
:1015E000DDF808E06A784FF461614143A878C2EB06
:1015F000021201EB820505442046294601F06EF9EE
:1016000028B10420607400202074012070BD20687F
:10161000416821F005014160204601F0F9F8A84237
:1016200008D200F5803000F5A341204601F040F9D2
:101630000028E6D1012060740020207470BD0000F5
:10164000B0B5A8B104460068416821F008014160C6
:10165000FFF79AF9054600BF20684068000709D4E3
:10166000FFF792F9401BB0F57A7FF5D90320B0BDA2
:101670000120B0BD0020B0BD70B538B10446406A4D
:1016800030B10020206104F1140007E0012070BD9A
:101690006068B0F5827F03D004F11C000021016076
:1016A0000026A66294F8510020B9204684F85060C4
:1016B00000F038F8022084F8510094E8071001F493
:1016C0008271036802F4044223F04003036023693B
:1016D00011440CF40062114403F0020263691144E6
:1016E00003F00102A369E569114403F40072114497
:1016F00005F03802256A114405F08002A56A1143FD
:1017000005F4005211430160042101EA13414160D4
:10171000C16921F40061C1610120666584F851004E
:10172000304670BD70B586B040F60044C4F2010486
:101730000068A4F55441002688420596CDE9036669
:10174000029601D006B070BD41F21800C4F202004A
:10175000416802AD41F480414160416801F480413B
:1017600001910199016841F0080101600068294672
:1017700000F00800019001984FF4204002900220F0
:101780000390032005902046FEF7FAFF4FF48040B7
:10179000CDE90206204629460496FEF7F1FF06B081
:1017A00070BD000080B501F0B1F880BD7047000049
:1017B0007047000010B590F83C20012A4FF002025B
:1017C00031D0012380F83C3080F83D200268D2F807
:1017D00004E0D2F808C00C682EF07003234340F2F6
:1017E000FF74C4F20004A242536005DCB2F1804FE2
:1017F0000ED040F2004307E042F60043C4F201037A
:101800009A4205D040F60003C4F200039A4204D184
:1018100049682CF08003194391600121002280F86F
:101820003D1080F83C20104610BD0000002804BF89
:101830000120704710B5044690F83D0028B90020FB
:1018400084F83C00204600F01FF8022084F83D0098
:101850002068211D01F0C0F8012084F8460084F8BA
:101860003E0084F83F0084F8400084F8410084F88A
:10187000420084F8430084F8440084F8450084F86A
:101880003D00002010BD000080B582B0006840F629
:101890000001C4F20001884214D040F20041C4F2B9
:1018A0000001884223D141F21C00C4F20200016809
:1018B00041F002010160006800F00200019001980F
:1018C00002B080BD41F21C00C4F202000168002297
:1018D00041F0040101600068002100F00400009064
:1018E00000981E20FFF7CAF91E20FFF7C3F902B0C7
:1018F00080BD00000146006841F21113C26822F069
:101900000102C260026A1A4208D1026A40F24443EC
:101910001A4203D1026822F0010202600122002073
:1019200081F83D207047000010B5044690F83C0057
:1019300001284FF0020008BF10BD012284F83C20AE
:1019400084F83D0020684FF6777382689A4382607E
:101950000A683F2A14DD5F2A18DD602A28D0B2F514
:10196000005F2DD0702A40D1D1E9012CCB686146AF
:1019700001F08AF82068816841F07701816034E0E5
:101980001F2A0FDC92B1102A10D02EE0402A23D05B
:10199000502A2AD14B68CA68194601F045F92068D7
:1019A000502120E0202A01D0302A1ED111461AE011
:1019B0004B68CA68194601F049F92068602112E0B5
:1019C000D1E9012CCB68614601F05EF8206881689E
:1019D00041F48041816008E04B68CA68194601F013
:1019E00023F92068402101F05BF8012084F83D00D4
:1019F000002084F83C0010BD7047000010B504467C
:101A000000680169890744BFC1685FEA817138D401
:101A100020680169490744BFC1685FEA41713CD44D
:101A200020680169090744BFC1685FEA017141D4B8
:101A300020680169C90644BFC1685FEAC16145D435
:101A400020680169C9071CBFC1685FEAC1714AD13A
:101A500020680169090644BFC1685FEA016149D491
:101A600020680169490644BFC1685FEA416148D402
:101A700020680169890644BFC1685FEA816147D473
:101A800010BD6FF00201016101212177806980079B
:101A900045D02046FFF7B0FF47E06FF00401016139
:101AA00002212177806910F4407F41D02046FFF762
:101AB000A3FF43E06FF00801016104212177C069B1
:101AC00080073ED02046FFF797FF40E06FF01001FF
:101AD000016108212177C06910F4407F3AD0204687
:101AE000FFF78AFF3CE06FF001010161204600F042
:101AF00039F9ADE76FF0800101612046FFF756FE2E
:101B0000AEE76FF040010161204600F047F9AFE712
:101B10006FF0200101612046FFF74AFE10BD20460C
:101B200000F060F8204600F0DBF8002020776FE737
:101B3000204600F057F8204600F0D2F80020207729
:101B40006EE7204600F04EF8204600F0C9F800206D
:101B500020776DE7204600F045F8204600F0C0F8F9
:101B6000002020776CE7000070B586B0006840F276
:101B70000045C4F20005A8424FF00000CDE9040082
:101B8000CDE9020001D006B070BD41F21800C4F2E8
:101B90000200016802AC41F0040101600168022604
:101BA00001F0040101910199016841F0080101600F
:101BB0000068214600F0080001900198C0200290C2
:101BC00005F5823003960596FEF7DAFD0320CDE990
:101BD000020605F5843021460596FEF7D1FD06B0D4
:101BE00070BD000070470000B0B5044690F83C009E
:101BF000012804BF0220B0BD4FEAB2000D4601210A
:101C0000032884F83C1036D8DFE800F0020A1222DC
:101C10002068294600F04CFF206850F8181F0EE09D
:101C20002068294600F074FF206850F8181F16E05D
:101C30002068294600F0A0FF206850F81C1F41F0E2
:101C400008010160016821F00401016029690FE0C9
:101C50002068294600F0C2FF206850F81C1F41F49C
:101C600000610160016821F4806101602969090255
:101C7000026811430160002084F83C00B0BD000000
:101C8000002804BF0120704710B5044690F83D00BD
:101C900028B9002084F83C00204600F01FF80220FC
:101CA00084F83D002068211D00F096FE012084F894
:101CB000460084F83E0084F83F0084F8400084F831
:101CC000410084F8420084F8430084F8440084F81A
:101CD000450084F83D00002010BD00007047000062
:101CE0007047000070B50446006842F600460022C6
:101CF0000D46C4F2010600F0B5FE2068B0420DD1D9
:101D0000316A41F21112114208D1016A40F2444293
:101D1000114203D1416C21F400414164016A41F256
:101D20001112114208D1016A40F24442114203D11A
:101D3000016821F0010101600120082D09D0042D66
:101D40000BD0002D14BF84F8410084F83E00002021
:101D500070BD84F84000002070BD84F83F00002072
:101D600070BD000040F21811C2F20001884218BF95
:101D7000704780B501F00AF905A001F0F5FD40F2C9
:101D80001810C2F20000FFF7B5FDBDE880407047B3
:101D900074696D65206F766572210D0070470000D3
:101DA000B0B582B0054690F83E0020280BD100293E
:101DB0004FF0010418BF002A06D095F83C00012816
:101DC00005D1022400E00224204602B0B0BD012467
:101DD000284685F83C402C6301F016F8286B012852
:101DE000F2D10024019428680168019141680191B1
:101DF0000199C16841F01001C160E5E710B540F2FA
:101E00006012C2F2000290420A4616D040F2A411BB
:101E1000C2F20001884218BF10BD40F2E85440F2FF
:101E20006010C2F20004C2F20000214600F05CFA29
:101E300040F2A410C2F200000EE040F2E81440F2BA
:101E4000A410C2F20004C2F20000214600F04CFAD5
:101E500040F26010C2F2000021464FF48062FFF7AA
:101E60009FFF10BD70470000B0B582B00168054605
:101E70000868CA684C6900F02F03202B02F0200389
:101E800005D123B1284600F01DFF02B0B0BD5FEAC6
:101E9000007C1EBF04F0010E02F4907414EB0E04DB
:101EA00024D12B6B1040C20617D5012B15D1002071
:101EB00001900868019048680190019848694006BF
:101EC0001CD4A88DEA8DEB8D002B1CBF801A5FEA15
:101ED000004240F09A8002B0B0BD010636D4400600
:101EE000F9D5284600F0E2FE02B0B0BDC10718BF28
:101EF00012F480712FD1410733D439E0A86B026806
:101F0000526893B2002BE6D0AC8DA342E3D2EA85AF
:101F10008269202A16D0CA6822F48072CA604A698F
:101F200022F001024A614A6922F040024A612022FD
:101F300085F83E2000222A63CA6822F01002CA6097
:101F4000FEF7ACFBA88DE98D401A6FE0284600F043
:101F500075FF02B0B0BD296C41F001012964410751
:101F600006D5BEF1000F03D0296C41F002012964AF
:101F7000810706D5BEF1000F03D0296C41F00401A2
:101F80002964BCF1000F06D55EEA030103D0296C79
:101F900041F008012964296C00299CD0104080067A
:101FA00002D5284600F08EFE28684069296C00F0B2
:101FB000400001F00801401820D0284600F060FEE3
:101FC00028684169490614D5416921F04001416101
:101FD000A86B70B142F67141C0F600014163FEF793
:101FE0007DFB00283FF477AFA86B416B884702B0B8
:101FF000B0BD2846FFF736FF02B0B0BD2846FFF758
:1020000031FF0020286402B0B0BDCA6822F490728B
:10201000CA604A6922F001024A61202285F83E2006
:1020200000222A63CA6822F01002CA6081B22846E0
:10203000FFF7E4FE02B0B0BD002804BF01207047E6
:1020400010B5044690F83D0028B9002084F83C0003
:10205000204600F021F8242084F83D002068C16863
:1020600021F40051C160204600F086FE206801691D
:1020700021F490410161416921F02A014161C16867
:1020800041F40051C16000202021206484F83D10FB
:1020900084F83E1010BD0000B0B586B0006844F270
:1020A000004140F60004C4F20001C4F20104884279
:1020B0004FF00001CDE90411CDE902112BD043F618
:1020C0000001C4F20101884257D141F21800C4F264
:1020D0000200016841F480410160016801F480411F
:1020E00001910199016841F004010160006802A9B1
:1020F00000F00400019001984FF40070029002205B
:102100000390032005902046FEF73AFB4FF48060D1
:102110000290252522E041F21800C4F20200416835
:1021200041F400314160416801F4003101910199AD
:10213000016841F004010160006802A900F0040098
:102140000190019804200290022003900320059042
:102150002046FEF715FB0820262502900020CDE939
:10216000030002A92046FEF70BFB284607210022A8
:10217000FEF784FD2846FEF77DFD06B0B0BD0000E9
:1021800010B590F83E30202B0BD100294FF0010400
:1021900018BF002A01D1204610BD90F83C30012B19
:1021A00001D1022010BD0123002480F83C300463DB
:1021B00000F02AFE204610BD40F26011C2F200017C
:1021C000884218BF704770B50CA001F0CDFB40F2FB
:1021D000E810C2F20000451E4FF480660DA400BF57
:1021E00015F8011F20460A4600F044FF013EF7D1D2
:1021F00000F032FFBDE87040704700BF7561727437
:1022000031207265637620696E74657272757074C0
:102210000D00000025633A25640D0A002DE9F04306
:1022200081B0044690F83D0020280BD10E460029CD
:102230004FF0010055D01746002A52D094F83C00C8
:10224000012803D1022001B0BDE8F083012084F809
:102250003C004FF0000921201D46C4F8409084F84E
:102260003D00FEF791FBA784E784A1680746B1F51E
:10227000805F07D1206900281CBF30464E46B0461B
:10228000064601E04FF0000884F83C9007E000BFEC
:1022900016F8010B21684860E08C0138E084E08C7E
:1022A00080B1204680213A462B4600F0F1FD80B9EE
:1022B000002EEDD138F8020B21686FF35F204860E3
:1022C0000026E9E7204640213A462B4600F0E0FD93
:1022D00018B1032001B0BDE8F083202084F83D0050
:1022E000002001B0BDE8F083034690F83D002028AF
:1022F0000AD100294FF0010018BF002A00D1704711
:1023000093F83C00012801D1022070471962002097
:1023100021219A84DA84186483F83D10196883F8BF
:102320003C00CA6842F08002CA60704770470000F3
:10233000FEE700002DE9F04786B0002741F21800C3
:10234000CDE90477CDE90277C4F20200016840F6D6
:10235000000A41F0100101600168C4F2010A01F0B5
:1023600010010191019901680AF5806541F0200191
:1023700001600168002201F02001019101990168CA
:102380004FF4835941F004010160016801F0040138
:1023900001910199016841F00801016000684FF462
:1023A000835100F00800019001982846FEF7E6FAF4
:1023B00050464FF4104100224FF41048FEF7DEFA69
:1023C0004FF4005002AECDE902070AF50060314635
:1023D0000497FEF7D5F940F61300CDE90207504601
:1023E00031460497FEF7CCF90420CDE902072846D0
:1023F00031460497FEF7C4F9CDF808904FF0010973
:10240000022428463146CDE903970594FEF7B8F932
:1024100050463146CDE90289CDE90474FEF7B0F9A2
:1024200006B0BDE8F087000080B540F2100045F22C
:102430000041C2F20000C4F2000148F2A062002391
:102440004FF4804CC0F2010280E80E00C0E9033C6A
:10245000C0E90533C0E90733FEF79CFA002818BF2E
:10246000FEF716F980BD000010B582B040F264009E
:1024700042F600010024C2F20000C4F200018DF80F
:102480000640ADF8044000944FF0FF3280E816009B
:10249000FEF7AEFF002818BFFEF7FAF840F264001E
:1024A000C2F2000001A90022ADF804408DF80640F8
:1024B000FFF772F8002818BFFEF7EAF840F20110A3
:1024C000C0F20100009040F26400C2F200006946D0
:1024D0000022FFF701F8002818BFFEF7D9F802B074
:1024E00010BD000010B540F2780043F60001C2F2C2
:1024F0000000C4F200014FF4827200234FF0020C7E
:102500004FF4007E382480E80E0080210A22C0E9C2
:10251000033CC0E9053EC461C0E90813C0E90A32C2
:10252000FFF7AAF8002818BFFEF7B2F810BD0000A8
:1025300010B58EB040F2D0000021C2F2000040F28F
:10254000004240F2E7340D91CDE90B11CDE90911BC
:10255000CDE90711CDE90511CDE90311CDE901114F
:10256000C4F200021123C0E9021401618021C0E914
:1025700000238161FFF75AF9002818BFFEF788F899
:102580004FF480500A9040F2D000C2F200000AA935
:10259000FFF7CAF9002818BFFEF77AF840F2D0001A
:1025A000C2F20000FFF76CFB002818BFFEF770F8BE
:1025B00040F2D0000024C2F2000008A9CDE908448E
:1025C000FFF7F8F8002818BFFEF762F86020CDE9A1
:1025D000010440F2D000C2F2000001A900220394DD
:1025E0000594FFF701FB002818BFFEF751F840F2F1
:1025F000D000C2F2000001A90422FFF7F5FA00287A
:1026000018BFFEF745F840F2D000C2F2000001A961
:102610000822FFF7E9FA002818BFFEF739F840F260
:10262000D000C2F2000001A90C22FFF7DDFA002859
:1026300018BFFEF72DF840F2D000C2F20000FFF7FD
:1026400093FA0EB010BD000080B586B040F21810AD
:102650000021C2F2000040F6000240F2F31CCDE976
:102660000411CDE90211CDE90011C4F2000244F2D7
:102670004F63C0E9021C01618021C0E90023816130
:10268000FFF7D4F8002818BFFEF702F84FF4805087
:10269000029040F21810C2F2000002A9FFF744F9BC
:1026A000002818BFFDF7F4FF0020CDE9000040F23C
:1026B0001810C2F200006946FFF77CF8002818BF26
:1026C000FDF7E6FF06B080BD80B540F2601043F62E
:1026D0000001C2F20000C4F2010100234FF00C0C13
:1026E0004FF4E13280E80E00C0E90333C0E905C3CE
:1026F000C361FFF7A1FC002818BFFDF7C9FF80BD2B
:1027000080B540F2A41044F20041C2F20000C4F2CD
:10271000000100234FF00C0C4FF4E13280E80E0072
:10272000C0E90333C0E905C3C361FFF785FC002896
:1027300018BFFDF7ADFF80BDFEE70000FEE700001B
:1027400000F0070080F00703042B28BF04234FF09C
:10275000FF3C03380CFA03F338BF00209943814053
:102760000CFA00F022EA00000843704770470000AE
:1027700081B040F20400C2F20000006844F6D35178
:10278000C1F26201A0FB0101480A009000BF00985D
:10279000411E00280091F9D101B07047010901EBF9
:1027A000810100F00F0000EB4100C0B27047000053
:1027B000B0B50446FEF7E8F8054600BF206841685A
:1027C000890607D4FEF7E0F8401BB0F57A7FF5D90B
:1027D0000320B0BD416841F0100141600020B0BD50
:1027E000B0B504460068416821F010014160FEF771
:1027F000CBF8054620684068800607D4FEF7C4F889
:10280000401BB0F57A7FF5D90320B0BD0020B0BDE4
:102810000068016A406A80B240EA014070470000E7
:1028200002689169D2F81CC0936983EA0100000430
:102830001CBFD2F81CC019461FFA8CF040EA0140B8
:102840007047000080B5172301FB03FC48F639638D
:10285000C3F6E303ACFB033C4FF4FA63032938BF30
:1028600040F2CF7303EB000E48F21F53C5F2EB1397
:10287000AEFB033140F2D27338BF40F2D473184438
:1028800000EB9E00A0EB511000EBD110104444F679
:10289000251100EB5C00C2F29241A0FB0112811AEB
:1028A00002EB51018908A1EBC101084480BD000081
:1028B000B0B50D460446FFF77BFF00281CBF012082
:1028C000B0BD2068290C0162A9B241622046FFF721
:1028D00087FF002818BF0120B0BD0000B0B50D462D
:1028E0000446FFF765FF00281CBF0120B0BD20682B
:1028F000290C8161A9B2C1612046FFF771FF002850
:1029000018BF0120B0BD000070470000B0B501380D
:102910000024B4EB106F1CBF0120B0BD4EF21005B7
:10292000CEF2000568604FF0FF300F2100F00CFB85
:102930000720AC6028602046B0BD000080B5FEF7DF
:1029400035F980BD70B594B00AAC20462821FDF75A
:10295000F0FB052000250A904FF480300226CDE9D7
:102960000B05CDE911604FF4801001211390204632
:102970000995CDE90755CDE90555CDE90355CDE9D3
:102980000155CDE90D11FEF7ADFBC0B90F20CDE922
:1029900005064FF4C060CDE9080505A8022107959A
:1029A000FEF786FA58B9012001904FF4807002902A
:1029B00001A8FEF7F9F9002804BF14B070BDFDF7B7
:1029C00067FE00007047000080B540F21810C2F2A8
:1029D0000000FFF713F880BD10B540F2FF7E0368DA
:1029E000C4F2000E42F6004C7045C4F2010C05DC46
:1029F000B0F1804F0AD040F2004203E0604505D0BC
:102A000040F60002C4F20002904203D14A6823F06B
:102A100070031343704505DCB0F1804F0AD040F2DB
:102A2000004203E0604505D040F60002C4F2000217
:102A3000904203D1CA6823F44073134323F0800209
:102A40004B69D1F800E08C681A4360450260C462AB
:102A5000C0F828E002D10969CCF8301001214161A9
:102A600010BD000080B501F01F014FF0010CD0F83F
:102A700020E00CFA01F32EEA03030362036A02FA70
:102A800001F11943016280BDD0F808C011432CF454
:102A90007F4C41EA032141EA0C018160704700004C
:102AA000826822F07002114341F007018160704793
:102AB000B0B5026A42F6004422F001020262026AE4
:102AC000D0F804E0D0F818C08B6822F00202C4F2FB
:102AD0000104A04242EA030205D1CB6822F00C02B5
:102AE00023F004031A430B68A04207D1D1E905453E
:102AF0002EF4407E44EA0E0444EA050E2CF07305E1
:102B00002B43C0F804E08361496841630262B0BDB1
:102B1000B0B5026A42F6004422F010020262026A74
:102B2000D0F804E0D0F818C08B6822F02002C4F27C
:102B30000104A04242EA031207D1CB686FF04005BE
:102B400022F0C00205EA03131A430B68A04207D122
:102B5000D1E905452EF4406E4EEA840444EA850E20
:102B60002CF4E64545EA0323C0F804E08361496894
:102B700081630262B0BD0000B0B5026A42F6004453
:102B800022F480720262026AD0F804E0D0F81CC01D
:102B90008B6822F40072C4F20104A04242EA0322CC
:102BA00007D1CB6840F2FF451B0222F44062AB43E1
:102BB0001A430B68A04207D1D1E905452EF4405EC7
:102BC0004EEA041444EA051E2CF073052B43C0F8AA
:102BD00004E0C3614968C1630262B0BDB0B5026A76
:102BE00042F6004522F480520262026A4368D0F83D
:102BF0001CE00C68D1F808C0C4F20105A84204D159
:102C00004D6923F4804343EA85132EF4E64545EAF3
:102C100004254360C56122F40052496842EA0C323F
:102C200001640262B0BD0000D0F820C0036A23F046
:102C300001030362836923F0F00343EA02122CF0DC
:102C40000A0319438261016270470000036A23F09E
:102C5000100303628369D0F820C023F4704343EA71
:102C600002322CF0A00343EA011182610162704735
:102C700080B5406A0021C185C184FFF7F3F880BDAB
:102C80000168CA6822F49072CA604A6922F001029F
:102C90004A61026B012A03D1CA6822F01002CA609D
:102CA000202180F83E1000210163704780B5016843
:102CB000CA6822F04002CA60202180F83D10FFF768
:102CC00035FB80BD80B582B090F83E1022291ED120
:102CD0008268B2F5805F02D10169002940D0816A23
:102CE000B2F5805F07D00AB9026922B10268526862
:102CF00002F07F0201E0026852680A700121826AD4
:102D000011448162C18D01390A04C18501D002B02C
:102D100080BD0168CA6822F02002CA60CA6822F435
:102D20008072CA604A6922F001024A61202280F85A
:102D30003E20026B012A1BD100220263CB6823F0E4
:102D40001003CB600B68DB0605D501920A6801927F
:102D5000496801910199818DFFF750F802B080BD5B
:102D60000168826A49686FF35F2111800221C6E71A
:102D7000FFF722FA02B080BD10B504460068D4E91E
:102D800002C22369016921F4405111430161616963
:102D900043EA0C021143C26841F20C639A431143A7
:102DA000C1604169A26921F44071114343F60002F8
:102DB000C4F201029042416102D0FEF739F901E00C
:102DC000FEF748F96268192148439100B0FBF1F021
:102DD00048F21F51C5F2EB11A0FB01235A096FF015
:102DE000630302FB0300322303EB0010A0FB01018D
:102DF000F02303EA5113206803EB0212C1F34311DD
:102E00001144816010BD000081628285C28500216D
:102E10002222016480F83E20026880F83C10D068CD
:102E200040F48070D060506940F001005061D0687B
:102E300040F020010020D1607047000090F83D1064
:102E4000212923D18168B1F5805F01D1016931B1B8
:102E5000016A02684B1C03620978516007E0016A4D
:102E6000036831F8022B6FF35F225A600162C18C54
:102E700001390A04C18418BF70470068C16821F095
:102E80008001C160C16841F04001C160704700002D
:102E90002DE9F0410446006800680840884202D1EC
:102EA0000020BDE8F0811D460E4690465F1C04E000
:102EB000206800683040B042F2D0002FF8D02DB129
:102EC000FDF762FDA0EB0800A842F1D92068C168B7
:102ED00021F4D071C160416921F0010141612020DC
:102EE00084F83D0084F83E00002084F83C00032074
:102EF000BDE8F08180B540F26010C2F20000FEF73C
:102F0000B3FF80BD80B540F2A410C2F20000FEF70E
:102F1000ABFF80BDFEE70000002848BF704700F00F
:102F20001F01012202FA01F14EF200124009CEF215
:102F3000000242F8201070474EF60C50CEF200000E
:102F40000068C0F3022070474EF6145300F00F02E1
:102F5000CEF2000309011A4400F16043B0F1FF3FD3
:102F6000C8BF03F564421170704700004EF60C5163
:102F7000CEF200010A684FF6FF031A4060F30A22FE
:102F800042F0806040F0FD700860704780B500F04E
:102F900015F800F045F880BD80B582B0019040F290
:102FA0006010C2F2000001A901224FF0FF33FFF7C9
:102FB00035F94FF0FF3002B080BD0000B0B540F2EF
:102FC000D004C2F2000420460021FEF78BFE40F63A
:102FD0000005C4F20105284640210022FDF7CEFC81
:102FE00020460421FEF77EFE284680210022FDF7C0
:102FF000C5FCB0BDFDF7E8FDFFF7A4FCFFF79AF9AB
:10300000FFF762FBFFF794FAFFF76CFAFFF778FB24
:10301000FFF71AFBFFF728FAFFF706FAFEE70000B2
:10302000B0B540F2D004C2F2000420460821FEF7F9
:1030300059FE40F60045C4F2010528460121002250
:10304000FDF79CFC20460C21FEF74CFE2846022191
:103050000022FDF793FCB0BD80B540F2601040F255
:10306000E811C2F20000C2F200014FF48062FFF7E3
:1030700087F880BD0FB4054B10B503A9044A029828
:1030800000F0DAF810BC5DF814FB0000992F00087E
:103090000000002002E008C8121F08C1002AFAD16F
:1030A00070477047002001E001C1121F002AFBD1C8
:1030B000704700002DE9FF5F82B00021DDE9043098
:1030C000020DDDF840B0034318D044F61050A2F2D0
:1030D000FF3242431514119801281FD0A5EB0B00B5
:1030E000401C5FEA000A4FF000064E4FDFF83891AF
:1030F000B046504615D5CAF1000413E011980124DA
:103100004AA3012801D16FEA0B010298119AC0E984
:103110000031C0E9024206B0BDE8F09FCBF10000EB
:10312000DFE704460021404A491842EB0450CDE94C
:10313000001012E0E00707D032463B4640464946C1
:10314000FDF7F0F88046894632463B461046194660
:10315000FDF7E8F806460F466410002CEAD1DDE9D9
:103160000401DDE90023BAF1000F06DAFDF7DAF811
:1031700042464B46FDF7D6F805E0FDF745F94246D5
:103180004B46FDF741F904460E460022284BFDF759
:10319000C3F903D84FF0FF30014607E00022254B6A
:1031A00020463146FDF717F8FDF79DF9102409E098
:1031B000002C0ADB0A220023FCF7DCFF039B3032E1
:1031C0001A55641E50EA0102F2D1641C039AC4F13C
:1031D00011031444119A012A03D0012208430DD18E
:1031E0000AE0084304D000204FF0110B119072E761
:1031F000A3EB0B056D1E0DE05B4504DD4FF00002F7
:1032000005F1010504E003DA4FF00002A5F1010524
:10321000002AECD002981199C0E90231C0E90045BA
:1032200079E70000000014400000F03F300000008B
:103230000000F0430000E03F2DE9FF4F95B09B46B2
:103240008946064600250FE2252877D10024274627
:10325000F84A0121059400E0044316F8013F203BA1
:1032600001FA03F01042F7D130782A2811D06FF01C
:103270002F033078A0F13002092A16D8059A44F0BD
:10328000020402EB820203EB42021044761C05901A
:10329000EFE759F8042B0592002A03DA504244F470
:1032A0000054059044F00204761C30782E2816D184
:1032B00016F8010F44F004042A280DD06FF02F02F5
:1032C0003078A0F13003092B09D807EB870302EB14
:1032D0004303C718761CF3E759F8047B761C307853
:1032E0006C280FD006DC4C2817D068280DD06A282F
:1032F00014D104E0742810D07A280FD10DE044F4E2
:1033000000140AE044F4801401E044F4401472789C
:10331000824202D104F58014761C761C307866282F
:103320000BD013DC582877D009DC002875D045284D
:10333000F6D04628F4D047281AD19DE118E063283A
:1033400035D0642879D0652812D195E1702873D0E2
:1033500008DC6728F1D069286FD06E280DD06F285F
:1033600006D1B5E073282CD0752875D0782874D094
:103370005A46179990476D1C75E1C4F30250022814
:1033800009D003280DD0D9F8001004280DD00D6005
:1033900009F1040967E1D9F80010EA17C1E9005200
:1033A000F6E7D9F800100D80F2E70D70F0E719F894
:1033B000041B8DF8001000208DF80100EA46012062
:1033C00003E059F804AB4FF0FF3061074FF0000104
:1033D00002D40DE008F101018846B9420FDA8045B8
:1033E000F8DB1AF808100029F4D108E008F101010F
:1033F00088468142FADB1AF808100029F6D10598B0
:103400005B46A0EB080721463846179A00F094FA6D
:10341000284400EB080507E04DE029E10DE01AF82B
:10342000010B5A4617999047B8F10108F7D25B464D
:1034300021463846179A13E142E00A220092C4F36B
:1034400002524FF0000A022A08D059F804CB032A8E
:103450004FEAEC710AD00DE029E02AE009F10701FA
:1034600021F00702F2E802C1914609E00FFA8CFC54
:103470004FEAEC71042A03D14FFA8CFC4FEAEC714D
:10348000002907DA0A460021DCF1000C61EB020199
:103490002D2202E0220504D52B228DF804200122E2
:1034A00003E0E20701D02022F7E7904659E00A2125
:1034B00002E010220DE010214FF0000A00910BE015
:1034C00010224FF0000A44F004040827009203E0A1
:1034D00008224FF0000A0092C4F30252022A05D0DB
:1034E00059F804CB0021032A08D009E009F10701AB
:1034F00021F00702F2E802C1914605E01FFA8CFCB8
:10350000042A01D10CF0FF0C4FF00008220728D547
:10351000702806D0009B83F0100353EA0A0305D0FD
:103520000EE040228DF80420012208E05CEA01024E
:1035300006D030228DF804208DF805000222904636
:10354000009B83F0080353EA0A030AD15CEA0102F4
:1035500001D1620705D530228DF804204FF0010813
:103560007F1E582804D034A003900EA802900DE0CE
:1035700036A0F9E753466046009AFCF7FBFD844607
:103580000398825C0298401E029002705CEA01007F
:10359000F0D1029806A9081A00F1200A600702D5A6
:1035A00024F4803400E00127574502DDA7EB0A0030
:1035B00000E0002000EB0A01009005984144401A09
:1035C0000590E00306D45B462146179A059800F063
:1035D000B3F90544002706E001A85A46C05D1799D3
:1035E00090476D1C7F1C4745F6DBE0030CD55B461E
:1035F0002146179A059800F09FF9054404E0302011
:103600005A46179990476D1C0099481E0090002952
:10361000F5DC08E0029802995A460078491C0291AC
:10362000179990476D1CBAF10001AAF1010AF1DC6B
:1036300065E1000009280100303132333435363776
:1036400038396162636465660000000030313233EE
:10365000343536373839414243444546000000008E
:1036600000F058F90544761C307800287FF4ECAD62
:1036700019B02846BDE8F08F620700D4062709F18B
:10368000070222F0070CFCE80223E14603F00048A1
:103690005FEA080C02D00FF2702C0DE05FEA045CC8
:1036A00002D50FF2682C07E05FEAC47C02D00FF26B
:1036B000602C01E0AFF2700C4FF0FF3823F00043B4
:1036C000CDF850C065280CD006DC452809D0462826
:1036D0001DD047283DD13DE0662818D067287ED10F
:1036E00038E00021112F01DB112000E0781CCDE92A
:1036F000000106A90EA8FFF7DDFCDDE90F010E9A17
:1037000003910021009207F1010A04914DE04FF06E
:1037100000400097CDE9011006A90EA8FFF7CAFCEA
:10372000DDE90F0203920E9B11990022DDF80CA037
:103730000093049211B9791C00EB010AB7EB0A005F
:1037400004D4C0F1FF3007F1010A0490AAEB07008E
:10375000019044E0012F00DA01270021112F01DD43
:10376000112000E03846CDE9000106A90EA8FFF7B8
:10377000A1FCDDE90F010E9A039100210491009252
:10378000BA4621070CD40399514500DA8A46BAF1AA
:10379000010F05DD009AAAF10101515C302908D022
:1037A000B84202DA10F1040F06DA0121CDE9011066
:1037B00015E0AAF10101E9E7002805DC04990144BC
:1037C0000491AAEB000102E0411C514500DD8A464C
:1037D0000499401A401C01904FF0004002902007CD
:1037E00004D40198504501DBCDF8048000208DF809
:1037F0004F0002980DF14F07B0F1004F25D02B205C
:103800000E9002984FF0020800280CDA4042029015
:103810002D200E9007E00A210298FCF795FC30312C
:10382000029007F8011DB8F10001A8F10108F2DCCF
:1038300002980028EFD1791E0E980870307800F0B9
:10384000200040F0450007F8020D12A8C01B00F14F
:1038500007081498007800B1012000EB0A010198D4
:1038600001EBE07105984144401A401E0590E003C9
:1038700006D45B462146179A059800F05DF805448A
:103880001498007818B15A46179990476D1CE003B8
:1038900024D55B462146179A059800F04DF805445B
:1038A0001CE00498002807DBDDE90301884203DD02
:1038B0000098405C179901E0179930205A469047CC
:1038C000049805F10105401C04900198401E0190E8
:1038D00004D12E205A46179990476D1CBAF1000169
:1038E000AAF1010ADDDC05E017F8010B5A46179929
:1038F00090476D1CB8F10001A8F10108F4DC5B46AB
:103900002146179A0598ABE62D0000002B00000019
:10391000200000002DE9F041044600251E46174610
:10392000880404D405E039462020B0476D1C641E8D
:10393000F9D52846BDE8F0812DE9F041044600257F
:103940001E469046C80301D5302700E02027880492
:1039500004D505E041463846B0476D1C641EF9D5D4
:103960002846BDE8F081000010B5044601E0FFF7ED
:1039700013FB14F8010B04490028F8D1BDE81040EE
:103980000A20FFF709BB0000000000200000000033
:1039900000000000010203040607080900000000FF
:1039A00001020304C83900080000002010000000D4
:1039B00094300008D839000810000020E00D000005
:1039C000A430000800000000000000000024F40003
:0839D0000100000010000000DE
:04000005080000ED02
:00000001FF
